:020000040800F2
:104000000014002059420008D77000085F6E0008B5
:10401000D570000865470008857B00080000000097
:104020000000000000000000000000009D410008AA
:10403000C147000800000000F1410008B572000807
:10404000734200087342000873420008734200087C
:10405000734200087342000873420008734200086C
:10406000734200087342000873420008734200085C
:10407000734200087342000873420008734200084C
:10408000734200087342000873420008734200083C
:10409000734200087342000873420008734200082C
:1040A000734200087342000873420008734200081C
:1040B000B97300080000000000000000734200080F
:1040C00073420008734200087342000800000000B9
:1040D00073420008797B00087342000873420008AD
:1040E0007342000873420008734200080000000099
:1040F00000000000000000000000000000000000C0
:1041000000000000000000000000000073420008F2
:1041100000000000000000007342000800000000E2
:10412000000000000000000000000000000000008F
:10413000000000000000000000000000000000007F
:1041400073420008734200080000000000000000F5
:10415000000000000000000000000000000000005F
:10416000734200087342000873420008734200085B
:104170007342000800000000000000000000000082
:104180000000000073420008DFF80CD000F066FA6F
:1041900000480047557F0008001400202B4B196889
:1041A0000868B0E8F04F80F30988BFF36F8F4FF0D5
:1041B000000080F311887047000000000648006886
:1041C000006880F3088862B661B6BFF34F8FBFF313
:1041D0006F8F00DF00BF00BF08ED00E0DFF80C00CC
:1041E000016841F470010160704700BF88ED00E094
:1041F000EFF30980BFF36F8F144B1A681EF0100F96
:1042000008BF20ED108A20E9F04F106008B44FF08D
:10421000500080F31188BFF34F8FBFF36F8F04F00E
:10422000ABFA4FF0000080F3118808BC19680868E9
:10423000B0E8F04F1EF0100F08BFB0EC108A80F30A
:104240000988BFF36F8F704700BF00BF5C0000207C
:10425000EFF3058070470000064880470648004796
:10426000FEE7FEE7FEE7FEE7FEE7FEE7FEE7FEE726
:10427000FEE7FEE74D73000889410008202A04DBB1
:10428000203A21FA02F00021704721FA02F3D040CF
:10429000C2F12002914008431946704740EA0103E9
:1042A0009B0703D009E008C9121F08C0042AFAD2EC
:1042B00003E011F8013B00F8013B521EF9D27047B0
:1042C0002DE9FE4F81EA030404F0004421F000418F
:1042D00000944FF0000B23F0004350EA01045ED03D
:1042E00052EA03045BD0C3F30A54C1F30A552C44C9
:1042F000A4F2F3340194A0FB0254C1F3130141F47E
:104300008011C3F3130343F4801301FB024400FB49
:10431000034E840A970A44EA815447EA8357A4FB70
:10432000076802958D0A05FB07854FEA932C04FB6D
:104330000C542705029D4FEA065847EA1637B5EB9D
:1043400008056EEB070C870E920E47EA811742EACA
:104350008312A7FB0201B6EB0B0164EB00042B0DEB
:1043600043EA0C335E1844EB1C50DA465146E7FB37
:104370000201C5F313044FEA0B3343EA14534FEA27
:104380000432019C43EA0603A4F10C040294009C4D
:10439000CDE900B400F013F903B0BDE8F08F0020C0
:1043A0000146F9E72DE9F04D81EA030404F0004BE2
:1043B00021F0004514464FF0000A23F0004150EA76
:1043C000050220D054EA01021DD0C5F30A57024667
:1043D000C5F31303C1F31300C1F30A5640F480156B
:1043E00043F48013A7EB0608101BD64608F2FD38ED
:1043F00073EB050002D308F1010801E092185B415C
:10440000B8F1000F03DA00200146BDE8F08D00206E
:104410004FF48011064684460EE0171B73EB050728
:1044200005D3121B63EB050306434CEA010C490854
:104430004FEA300092185B4150EA0107EDD152EA91
:10444000030012D082EA040083EA0501084305D084
:10445000101BAB4106D20122002306E000224FF0E0
:10446000004302E06FF0010253101AEB06004CEB20
:10447000085110EB0A0041EB0B01BDE8F04D00F0D4
:104480008FB80EB540F2334102910021CDE9001101
:104490000A460B4600F093F803B000BDC1F30A5280
:1044A00010B5C1F3130140F2FF3341F480119A4279
:1044B00001DA002010BD40F233439A42A2F23342A7
:1044C00003DC5242FFF7DAFE10BD904010BD01F050
:1044D000004330B421F0004150EA010206D00A0D39
:1044E000A2F56072C1F31301002A02DC30BC002087
:1044F0007047440F44EAC104C100E01830BC00EB2F
:10450000C25000F016B830B50B46014600202022FC
:10451000012409E021FA02F59D4205D303FA02F5D0
:10452000491B04FA02F52844151EA2F10102F1DC30
:1045300030BD0029A8BF7047401C490008BF20F0CB
:104540000100704710B4B0FA80FC00FA0CF050EA99
:10455000010404BF10BC704749B1CCF1200421FA1A
:1045600004F411FA0CF118BF012121430843A3EB15
:104570000C01CB1D4FEA00614FEA102042BF002022
:1045800010BC704700EBC35010440029A4BF10BCFE
:104590007047401C490008BF20F0010010BC704764
:1045A00010B5141E73F1000408DA401C41F100013B
:1045B00092185B411A4301D120F0010010BD2DE992
:1045C000F04D92469B4611B1B1FA81F202E0B0FA89
:1045D00080F22032904600F053F804460F4640EA3D
:1045E0000A0041EA0B0153465A46084313D01146CC
:1045F00053EA010019D0C8F140025046FFF73EFED1
:1046000005460E4650465946424600F039F80843E2
:1046100005D0012004E020463946BDE8F08D002099
:10462000054346EAE0762C4337430A986305E40ADB
:10463000A0EB08000022FD0A44EA47540A3002D5E4
:1046400000200146E9E7010510196941DDE9084547
:1046500000196941BDE8F04DA2E70000064C074D86
:1046600006E0E06840F0010394E807009847103442
:10467000AC42F6D3FFF78CFD808B0008A08B0008BE
:10468000202A04DB203A00FA02F100207047914012
:10469000C2F1200320FA03F3194390407047000051
:1046A00070B504460068816801F00301012926D134
:1046B0000168C90723D0816801F00D01012910D1DB
:1046C000816841F00201816021680320086000F0E8
:1046D00099FF05460FE000BF00F094FF401B022841
:1046E00009D9606C40F010006064A06C40F00100DB
:1046F000A064012070BD20688068C007ECD1002054
:1047000070BD000070B504460068816801F00301C7
:10471000012902D10168C90720D18168104A1142DC
:104720000DD1816841F00101816000F06BFF054609
:104730000FE000BF00F066FF401B022809D9606C43
:1047400040F010006064A06C40F00100A064012003
:1047500070BD20680068C043C007EBD1002070BD69
:104760003F000080FEE7000070B5134E307800284F
:1047700021D0124C0025357020785A281BD1607842
:10478000A52818D1A078332815D1E078442812D173
:1047900004220021204600F089F8217988420AD1BC
:1047A00000202554401CC0B20428FAD345F25550CD
:1047B00000F08AF8757070BD00000020D40200205F
:1047C0007047000006490020C8610648016941F0B1
:1047D00004010161016941F040010161704700007D
:1047E000F002002000200240064A0021D161064963
:1047F0000A6942F002020A614861086940F040001B
:1048000008617047F002002000200240044B0022A3
:10481000DA61044A136943F00103136101807047B0
:10482000F0020020002002400A490020CA68D30696
:10483000094A04D5D06940F00200D0611020CB684D
:104840005B0705D5D36943F00103D36140F0040051
:10485000C860704700200240F002002070B5054695
:1048600000F0D0FE0646104C09E0681C07D025B1C8
:1048700000F0C8FE801BA84201D9032070BDE0688B
:10488000C007F2D1E068800601D52020E060E06832
:10489000C00602D4E068400703D5FFF7C5FF01203A
:1048A00070BD002070BD00000020024030B5002423
:1048B000234605E0CD185B1C455DDBB22C44A4B259
:1048C0009342F7D3E0B230BD1FB504460A49002039
:1048D0000390CDE900010120029000F0B9FD03A989
:1048E000684600F017FD224600230449012000F02D
:1048F0006FFD00F063FD1FBD00FC0008FCFF000819
:10490000F0B595B00025009590F840202E46012A7C
:1049100019D0012780F8407003689A6852077DD447
:104920004A681F24052A11D2D3F830C002EB420294
:10493000520094402CEA040C0C6894404CEA040C9D
:10494000C3F830C035E0022015B0F0BD0A2A0FD2FE
:10495000D3F834C0521F02EB4202520094402CEABA
:10496000040C0C6894404CEA040CC3F834C020E0FA
:104970000F2A0FD2D3F838C00A3A02EB4202520093
:1049800094402CEA040C0C6894404CEA040CC3F8E4
:1049900038C00EE0D3F83CC00F3A02EB420252009E
:1049A00094402CEA040C0C6894404CEA040CC3F8C4
:1049B0003CC00268936813F00C0F4FF0070373D1EB
:1049C0000C680A2C11D3D2F818C00A3C04EB44043A
:1049D00003FA04FE2CEA0E0CD1F808E00EFA04FEED
:1049E0004CEA0E0CC2F818C00FE0D2F814C004EB69
:1049F000440403FA04FE2CEA0E0CD1F808E00EFA87
:104A000004FE4CEA0E0CC2F814C002684C69D2F8DD
:104A10000CC0CCF3C10C4FEA4C0C00E0CDE004FA22
:104A20000CF4D1F810E0DFF8F4C1BEF1010F42D070
:104A3000BEF1020F4DD0BEF1030F58D0BEF1040FEE
:104A400063D0146E91F800C004F0F844B4EB8C6F9E
:104A500003D1146E24F0004414660268546E91F879
:104A600000C004F0F844B4EB8C6F03D1546E24F012
:104A7000004454660268946E91F800C004F0F84453
:104A8000B4EB8C6F03D1946E24F0004494660268FA
:104A9000D46E91F800C004F0F844B4EB8C6F03D1ED
:104AA000D46E24F00044D4660268946804F00304D1
:104AB000012C3AD136E0D2F860E00EEA0C0E91F803
:104AC00000C044EA8C644EEA040E4EF000441466C2
:104AD000EAE7D2F864E00EEA0C0E91F800C044EA6E
:104AE0008C644EEA040E4EF000445466DCE7D2F8C3
:104AF00068E00EEA0C0E91F800C044EA8C644EEABD
:104B0000040E4EF000449466CEE7D2F86CE00EEA54
:104B10000C0E91F800C044EA8C644EEA040E4EF08C
:104B20000044C0E71468E4074CD1CC68012C06D0DF
:104B300052F8B03F0C78A740BB43136020E052F816
:104B4000B04F91F800C007FA0CF73C4314600A68B4
:104B500004680A2A0AD3A769093A02EB4202934081
:104B60009F438B6893401F43A76109E06769521C0C
:104B700002EB420293409F438B6893401F4367615F
:104B80000968274A102904D0112905D0122906D016
:104B900018E093681B0204E09368DB0101E093686E
:104BA0005B02002B0EDB009603689C6804F0030494
:104BB000012C0BD11C68E40708D0416C41F02001A6
:104BC0004164012580F840602846BDE64FF0A044CE
:104BD000102908D011291AD01229F3D1916841F473
:104BE00080019160EEE7A342ECD1916841F40001AD
:104BF00091600C490C4A0968B1FBF2F101EB8101AB
:104C0000490000E0491E00910029FBD1DAE7A342E8
:104C1000D8D1916841F08071E3E7000000F0FF8394
:104C2000000300503400002040420F000068006C78
:104C300070470000F0B54FF0000695B0040037460D
:104C40003546009605D0606CC00648D4606C18B13B
:104C500033E0012015B0F0BDA5642565E56484F856
:104C60004050204600F0C4F820688068C00024D47A
:104C70002046FFF715FD0646606CC0061DD4E6B958
:104C8000606C20F4885040F0020060642068816805
:104C900021F0405181602068816841F0805181603D
:104CA0004E484F490068B0FBF1F000EB8000400037
:104CB00000E0401E00900028FBD120688168C900F8
:104CC00002D5806880000AD5606C20F0020040F0B8
:104CD00010006064A06C40F00100A0640126606CCC
:104CE000C00671D4002E6FD12168886840076BD44C
:104CF000606C20F4807040F00200606400953948D8
:104D00008A6802F00302012A02D10968C90705D1A5
:104D10008168626821F4403111438160D4E9021056
:104D20000843A16B012902D04FF4805200E0002219
:104D3000E16942EA41321043626A3843012A0AD1EA
:104D4000A9B1616C21F0020141F020016164A16C04
:104D500041F00101A164E16A012902D0226B1143F3
:104D6000084321688A6812F00C0F08D012E0218DE8
:104D70001D4A02EB4141014341F48030EBE7CA6830
:104D800044F202039A43CA60A169626B890341EA53
:104D9000420108432168CA68144B1A400243CA60A2
:104DA000206901282068016B21F00F0102D1226ADD
:104DB000521E11430163A564606C20F0020040F0B4
:104DC0000100606407E0FFE7606C20F0020040F043
:104DD00010006064012630463CE7000034000020EB
:104DE00040420F00000300500000FEFF07C0F0FF2C
:104DF00000B5006887B0B0F1A04F13D10A484169EF
:104E000041F0805141614069694600F08050059051
:104E10000120009003200190002002904FF090406C
:104E200000F02AFB07B000BD001002402DE9F0475A
:104E3000044640690D464FF00008082810D02E485F
:104E40008168C9060ED0806800F4404070B1606C83
:104E500040F02000606484F840800120BDE8F087C5
:104E6000082604E02068C068C007EFE70C26206829
:104E7000C76800F0C7FB814610E0681C0ED02DB15A
:104E800000F0C0FBA0EB0900A84207D9606C40F01D
:104E90000400606484F840800320DFE72068006835
:104EA0003042EAD0606C40F4007060642068C168F1
:104EB00011F4406F1AD1B90418D40168090715D547
:104EC00081684907616C0AD421F480716164616C66
:104ED000C9040BD4616C41F00101616406E041F04A
:104EE00020016164A16C41F00101A164790400D446
:104EF00006600020B2E700000003005010B5044631
:104F000000688068400736D494F84000012832D009
:104F1000012084F840002046FFF7F4FB002110B187
:104F200084F8401010BD626C40F601639A4342F46D
:104F300080726264626C22F4801262642268D368B8
:104F40009B0105D5636C23F4005343F480536364E1
:104F5000636CDB0404D5A36C23F00603A36400E0B8
:104F6000A16484F840101C21116021688A6842F015
:104F700004028A6010BD022010BD70B5040003D089
:104F800094F8200010B104E0012070BD204600F02C
:104F900081F82068016821F00201016000F032FB15
:104FA0000546052604E000F02DFB401B0A2811D819
:104FB000206840688007F6D42068016841F001014C
:104FC000016000F01FFB05460BE000F01BFB401BDF
:104FD0000A2806D9606A40F40030606284F82060D4
:104FE000D2E720684068C007EFD0207E0128206803
:104FF00001683DD021F080010160607E01282068B9
:10500000016838D021F040010160A07E01282068AD
:10501000016833D021F020010160E07E0128206882
:1050200001682ED041F010010160207F0128206826
:10503000016829D021F008010160607F0128206803
:10504000016824D021F004010160D4E90201084381
:10505000D4E90412114308436168491E08432168DA
:10506000C86100206062012084F82000002070BD2B
:1050700041F08001C0E741F04001C5E741F0200167
:10508000CAE721F01001CFE741F00801D4E741F071
:105090000401D9E700B500680E4987B0884217D1EE
:1050A0000D48C16941F00071C161C069694600F0F5
:1050B000007005904FF44070009002200190002095
:1050C00002900320039009200490044800F0D4F9D2
:1050D00007B000BD0064004000100240000400481A
:1050E00030B51F235FF0010505FA03F40C4201D12E
:1050F0005B1EF9D27AB1082A09D0102A04D0182AE6
:1051000009D1072B05D206E0082B02D203E0102BB1
:1051100001D3012030BD036859610068816821F026
:10512000180111438160002030BD000010B504005B
:1051300010D0607F20B900202077204600F030F8A2
:1051400002206077207938B1D4E902122046FFF7B7
:10515000C7FF48B1012010BD216810484861206890
:10516000816821F0180181606079A0B1206921680F
:10517000086120688168626921F0600111438160E3
:1051800020688168A26921F08001114381600120BB
:105190006077002010BD4FF0FF30E8E7B71DC10475
:1051A00008B500680649884208D10648416941F0BF
:1051B00040014161406900F04000009008BD0000DE
:1051C000003002400010024070B54379012B1AD024
:1051D000012646710223037105682C6840F6FE73B0
:1051E00093409C43D1E900310B43934023432B6010
:1051F00001680B68C0249440A3430B600671002132
:105200004171084670BD022070BD70B5040003D026
:105210002079002510B105E0012070BD65712046A0
:1052200000F008F802202071256101202071002083
:1052300070BD000000B500680C4987B0884213D1EA
:105240000B48C16941F00051C161C069694600F075
:105250000050059010200090032001900020029043
:105260004FF0904000F008F907B000BD0074004016
:105270000010024008B50068009011B910440830D1
:1052800000900360002008BD30B54279012A10D09B
:10529000012242710223037103681D6802FA01F4BE
:1052A00025431D6001680B68C3F383030F2B02D0F5
:1052B00005E0022030BD4B6843F001034B600271F2
:1052C00000214171084630BD10B590F8211000242E
:1052D000022903D004218163012418E001680A68CF
:1052E00022F00E020A6001680A6822F001020A60D8
:1052F00090F84020C36B012101FA02F25A6080F855
:105300002110002180F82010416B01B18847204610
:1053100010BD00002DE9F047054626480F4601263E
:10532000017E01290FD00121814601762868DFF82E
:1053300088804CF25034012808D0A2462046FFF75E
:105340008DFAA0B130E00220BDE8F0872046FFF7DB
:1053500085FA00BBFFF736FA2046FFF77FFAD8F848
:105360001010064621F00401C8F810101CE04FF0A0
:10537000FF3038606C6811E02046FFF735FA504680
:10538000FFF76CFAD8F81010060021F00201C8F8F7
:10539000101001D03C6007E004F50064D5E901017C
:1053A00000EBC120A042E7D8002189F81810304650
:1053B000CAE70000F0020020002002400348016913
:1053C00041F0800101610020704700000020024090
:1053D0002DE9F05F07461C4888460024017E1546EB
:1053E0001E46012909D00121814601764CF2503A2E
:1053F0005046FFF733FA18B122E00220BDE8F09FD3
:10540000012F02D0022F00D00427D346DFF83CA0A2
:10541000220128463146FEF731FF81B208EB4400F5
:10542000FFF7F4F95846FFF719FADAF8102022F0DE
:105430000102CAF8102018B9641CE4B2BC42E7D3D8
:10544000002289F81820D9E7F0020020002002404D
:10545000064900200A69120607D5054A4A60054A2E
:105460004A600969090600D5012070470020024002
:1054700023016745AB89EFCD2DE9F84FDFF860B127
:1054800000234FF0010C4FF0030A4FF00F090BF10E
:10549000040E9DE00CFA03F6344022007ED04C68E6
:1054A000022C01D0122C0ED1DC0800EB8408D8F8B5
:1054B00020405D07EF0E09FA07F5AC430D69BD40CA
:1054C0002543C8F8205007685D0091F804800AFA67
:1054D00005F408F00308A74308FA05F848EA0708A6
:1054E000C0F800804F68012F05D0022F03D0112F84
:1054F00001D0122F11D18768D1F80C80A74308FA88
:1055000005F848EA0708C0F808804768B7430E79ED
:10551000C6F300169E403E434660C668A6438C68AC
:10552000AC403443C4604C68E40050D52D4CA569B0
:1055300045F00105A561A46923F0030504F0010409
:105540000094294C2E19B4689D072F0F09FA07F50E
:10555000AC43B0F1904F04D0244DA84203D10125B3
:105560000CE000250AE0224DA84201D1022505E009
:10557000204DA84201D1032500E00525BD4025436B
:10558000B560DBF800405D464E689443F60300D5F5
:1055900014432C607546DEF8004000E017E04E68CA
:1055A0009443B60300D514432C600D4D08352C6888
:1055B0004E689443F60200D514432C60084D0C3518
:1055C0002C684E689443B60200D514432C605B1CD3
:1055D0000A681446DA407FF45DAFBDE8F88F00003A
:1055E0000004014000100240000001400004004897
:1055F00000080048000C00480AB1816170478162D0
:1056000070470000014880687047000028000020B3
:1056100070B5040011D021684CF6CC4008602168B8
:1056200045F255500860D4E9000141602168A06846
:105630008860FFF7E7FF054609E0012070BD00BF65
:10564000FFF7E0FF401B302801D9032070BD206820
:10565000C0680028F4D120680269E1688A4201D05C
:10566000016102E04AF6AA210160002070BD0068D5
:105670004AF6AA21016000207047000002488168B4
:10568000027811448160704728000020074810B557
:10569000016841F010010160032000F095F80F202F
:1056A00000F006F800F024F8002010BD00200240B1
:1056B00070B50D4D04464FF47A712878B1FBF0F0C7
:1056C0000A490968B1FBF0F000F017FF48B9102C47
:1056D00007D200222146501E00F056F800206C60D0
:1056E00070BD012070BD00002800002034000020A3
:1056F0001E4808B5816941F001018161816901F0AD
:1057000001010091C16941F08051C161C06900F09F
:1057100080500090032000F057F8002211466FF0EF
:105720000B0000F031F8002211466FF00A0000F083
:105730002BF8002211466FF0090000F025F8002236
:105740001146501F00F020F800221146101F00F0F3
:105750001BF800220F21901E00F016F800220F21E6
:10576000BDE80840501E00F00FB8000000100240D5
:1057700000F01F02012191404009800000F1E0206B
:10578000C0F8001170470000F0B40E4B1B680C46C7
:10579000C3F30223C3F10705042D00D90425191D05
:1057A000072901D2002300E0DB1E012606FA05F1DD
:1057B000491E214099409E40761E16403143F0BC60
:1057C00001F08ABC0CED00E0064900F00702086811
:1057D0004FF6FF03184040EA0220034A10430860D6
:1057E000704700000CED00E00000FA052DE9F84FCD
:1057F00005460068774CC0036FD5E0690026C000FD
:1058000008D4E06940F08050E061E069012600F0D2
:105810008050009070480168C90512D40168804624
:1058200041F480710160FFF7EDFE074605E000BF1F
:10583000FFF7E8FEC01B642835D8D8F80000C00583
:10584000F6D5206A10F4407053D0A98801F4407155
:1058500081424ED0206A4FF4803191FAA1F2B2FA1F
:1058600082F297005D4A4FF00108174420F440701F
:10587000C7F8008491FAA1F1B1FA81F102EB81013C
:105880000023C1F800342062C00732D0FFF7BAFE0F
:10589000074641F2883A4FF0020907E0FFF7B2FEEF
:1058A000C11B514502D90320BDE8F88F99FAA9F12F
:1058B000B1FA81F141F040014846B8EB511F01D1E6
:1058C00021680CE090FAA0F1B1FA81F141F04001B9
:1058D000B0EB511F02D1216A01E015E0616A99FA2B
:1058E000A9F0B0FA80F000F01F0008FA00F21142AF
:1058F000D4D0206A696820F44070084320621EB149
:10590000E06920F08050E0612878C00705D0206B66
:10591000A96820F00300084320632878800605D595
:10592000206BE96820F0100008432063286880039A
:1059300005D56068296B20F48000084360602878F2
:10594000400605D5206B296920F02000084320631C
:105950002888000405D5206B696920F040000843C1
:1059600020632888800505D56068E96920F4000077
:10597000084360602878000605D5E06AA96920F42C
:10598000F8700843E0622888C00405D5206B296AB6
:1059900020F48070084320632868400305D5206BFD
:1059A000696A20F48060084320632868000305D5F5
:1059B000206BA96A20F40060084320632868C002B5
:1059C00005D5206BE96A20F40050084320630020CD
:1059D0006AE70000001002400070004000004242F0
:1059E0002DE9F0470F46050069D04A4E306800F0B7
:1059F0000700B84209D2306820F007003843306011
:105A0000306800F00700B84259D12878424C80072E
:105A100005D56068A96820F0F00008436060287828
:105A2000C0073DD06968012001290DD0022923D08B
:105A30005FF0020393FAA3F2B2FA82F242F020027C
:105A4000520904D0226803E04FF40033F2E7626A9F
:105A500093FAA3F3B3FA83F303F01F0398400242CF
:105A60002DD0606820F0030008436060FFF7CAFD96
:105A7000804641F288390CE04FF00073DAE700BF4E
:105A8000FFF7C0FDA0EB0801494502D90320BDE89E
:105A9000F0876068696800F00C00B0EB810FEFD10F
:105AA000306800F00700B8420BD9306820F00700DA
:105AB00038433060306800F00700B84201D0012060
:105AC000E5E72878400705D56068E96820F4E060DC
:105AD000084360602878000706D56068296920F4CB
:105AE000605040EAC100606000F052F86168F02246
:105AF00092FAA2F201F0F001B2FA82F2D140074A22
:105B0000515CC840064908600F20FFF7D1FD002016
:105B1000BDE7000000200240001002403C8B00085E
:105B20003400002001480068704700003400002065
:105B300008480949006849684FF4E06292FAA2F205
:105B400001F4E061B2FA82F2D140044A515CC840EB
:105B50007047000034000020001002404C8B000809
:105B600008480949006849684FF4605292FAA2F265
:105B700001F46051B2FA82F2D140044A515CC8404B
:105B80007047000034000020001002404C8B0008D9
:105B9000144B10B55A68144802F00C0104291DD0AA
:105BA00008291BD14FF4701494FAA4F402F4701174
:105BB000B4FA84F4E1400D4CDB6A615C0F2494FA82
:105BC000A4F403F00F03B4FA84F4E340074C103458
:105BD000D203E35C03D5B0FBF3F0484310BD0448A7
:105BE000484310BD0010024000127A001C8B0008D0
:105BF00000093D002DE9F84F040071D02078FB4DDD
:105C0000C0074FF0010625D068687704C0F3810013
:105C1000012807D06868C0F3810002281BD168689A
:105C2000C00318D597FAA7F0B0FA80F040F0200032
:105C3000400901D0286800E0686A97FAA7F1B1FA34
:105C400081F101F01F0106FA01F1084265D0606898
:105C50000028D2D061E06068B0F5803F0BD010B171
:105C6000B0F5A02F17D0286820F48030286028686D
:105C700020F4802002E0286840F480302860E86A40
:105C8000A16820F00F000843E862606820B3FFF7C6
:105C9000B9FC80460AE0286840F480202860EAE7E2
:105CA000FFF7B0FCA0EB0800642872D897FAA7F0C1
:105CB000B0FA80F040F02000400901D0286800E0F0
:105CC000686A97FAA7F1B1FA81F101F01F0106FAAB
:105CD00001F10842E4D020E0FFF794FC804607E0A1
:105CE000C7E000BFFFF78EFCA0EB08006428DCD8FB
:105CF00097FAA7F0B0FA80F040F02000400901D0F8
:105D0000286800E0686A97FAA7F1B1FA81F101F01A
:105D10001F0106FA01F10842E4D12078DFF8D082B1
:105D200080074FF0000A4FF0020759D568684FF01E
:105D3000F80B10F00C0F07D06868C0F38100022840
:105D40001BD16868C00318D497FAA7F0B0FA80F0A6
:105D500040F02000400901D0286800E0686A97FA06
:105D6000A7F1B1FA81F101F01F0106FA01F1084231
:105D70002BD0206901287CD127E0206988B396FACE
:105D8000A6F0B0FA80F048F82060FFF73BFC8146AF
:105D900006E055E1FFF736FCA0EB0900022884D8A5
:105DA00097FAA7F0B0FA80F040F02000400901D047
:105DB000286800E0686A97FAA7F1B1FA81F101F06A
:105DC0001F0106FA01F10842E4D028689BFAABF201
:105DD0006169B2FA82F220F0F8009140084328602D
:105DE00025E0FFE796FAA6F1B1FA81F148F821A083
:105DF000FFF708FC814605E0FFF704FCA0EB090073
:105E00000228CCD897FAA7F0B0FA80F040F0200032
:105E1000400901D0286800E0686A97FAA7F1B1FA52
:105E200081F101F01F0106FA01F10842E4D1207866
:105E300000076AD5A069A0B396FAA6F0B0FA80F080
:105E400008EB8000C0F88064FFF7DCFB814605E0CA
:105E5000FFF7D8FBA0EB09000228A0D897FAA7F01B
:105E6000B0FA80F040F06000B6EB501F02D1286815
:105E70000CE077E197FAA7F0B0FA80F040F060000C
:105E8000B7EB501F01D1286A00E0686A97FAA7F1C2
:105E9000B1FA81F101F01F0106FA01F21042D7D0E8
:105EA00033E0FFE796FAA6F0B0FA80F008EB800046
:105EB000C0F880A4FFF7A6FB814605E0FFF7A2FB30
:105EC000A0EB090002289CD897FAA7F0B0FA80F05E
:105ED00040F06000B6EB501F01D128680BE097FA44
:105EE000A7F0B0FA80F040F06000B7EB501F01D18E
:105EF000286A00E0686A97FAA7F1B1FA81F101F027
:105F00001F0106FA01F21042D8D12078400774D55B
:105F1000E8694FF00009C00009D4E86940F08050FA
:105F2000E861E8694FF0010900F0805000903148C5
:105F30000168C90512D4016841F480710160FFF75E
:105F400061FB834606E000BFFFF75CFBA0EB0B00A4
:105F5000642875D827480068C005F5D5E068012891
:105F60000AD008B1052811D0286A20F00100286263
:105F7000286A20F0040002E0286A40F0010028624C
:105F8000E068C8B3FFF73EFB83460DE0286A40F0A7
:105F900004002862F0E700BFFFF734FBA0EB0B0121
:105FA00041F2883081424BD897FAA7F0B0FA80F0DE
:105FB00040F04000B6EB501F01D128680BE097FA83
:105FC000A7F0B0FA80F040F04000B7EB501F01D1CD
:105FD000286A00E0686A97FAA7F1B1FA81F101F046
:105FE0001F0106FA01F21042D6D035E0001002403F
:105FF000000042420070004000E034E0FFF702FB86
:10600000834607E0FFF7FEFAA0EB0B0141F2883070
:10601000814215D897FAA7F0B0FA80F040F040001E
:10602000B6EB501F01D128680CE097FAA7F0B0FA40
:1060300080F040F04000B7EB501F02D1286A01E029
:1060400083E0686A97FAA7F1B1FA81F101F01F01C4
:1060500006FA01F21042D5D1B9F1000F03D0E86978
:1060600020F08050E861E06980B36968C1F3810184
:10607000022977D04FF080714F00022809D091FAA1
:10608000A1F0B0FA80F048F820A0FFF7BBFA044670
:106090005EE050468A4691FAA1F1B1FA81F1C1461B
:1060A00048F82100FFF7AEFA804605E0FFF7AAFAAC
:1060B000A0EB0800022848D897FAA7F0B0FA80F0C1
:1060C00040F02000400902D0286801E056E0686AEC
:1060D00097FAA7F1B1FA81F101F01F0106FA01F177
:1060E0000842E3D1D4E908100843696821F4741127
:1060F000084368609AFAAAF0B0FA80F049F8206084
:10610000FFF780FA044604E0FFF77CFA001B022840
:106110001BD897FAA7F0B0FA80F040F020004009B1
:1061200001D0286800E0686A97FAA7F1B1FA81F116
:1061300001F01F0106FA01F10842E5D01EE000BFA0
:10614000FFF760FA001B022802D90320BDE8F88F90
:1061500097FAA7F0B0FA80F040F02000400902D092
:10616000286801E00CE0686A97FAA7F1B1FA81F1BA
:1061700001F01F0106FA01F10842E1D10020E5E734
:106180000120E3E710B500680B4641680D48014067
:10619000080CD870C1F304245C7001F03F049C70BB
:1061A000C1F34231197052B900F0A6FFD870587887
:1061B00000F0A2FF5870987800F09EFF98700020C1
:1061C00010BD00003FFFFF0010B50B460168896A53
:1061D000596001680969C1F30E019960006801689E
:1061E0000E480140C1F305401870C1F306245C70ED
:1061F00001F07F049C70402404EA1141D97052B927
:1062000000F07AFF1870587800F076FF5870987890
:1062100000F072FF9870002010BD00007F7F7F00AB
:1062200070B5040002D0607F10B106E0012070BD9F
:1062300000202077204600F049F80220607721688E
:10624000CA204862216853204862204600F068FF57
:10625000FF25042618BB206881681B4A1140816015
:106260002168886862681043D4E904231A43104304
:1062700088602168E068086120680169228941EA34
:10628000024101612068C16821F08001C16020687D
:106290008068800607D4204600F008F918B120680D
:1062A00045626677C2E72068016C21F480210164B1
:1062B0002068016CA26911430164206845620120D5
:1062C0006077002070BD0000BFFF8FFF00680749A6
:1062D00088420AD10120C10391FAA1F1044AB1FA1E
:1062E00081F102EB8101C1F80004704700280040F1
:1062F000000042422DE9F0470446007F0B4601288A
:106300001FD04FF0010984F81C9002206077DAB1A9
:106310009878D97840EA014558781978000240EA1F
:10632000413005432168CA204862216853204862F1
:10633000204600F0F5FE0026FF274FF0040860BB62
:106340001AE00220BDE8F0875878C10603D500F0B6
:10635000EF000A305870D87800F0D7FE0204587861
:1063600000F0D3FE42EA0022987800F0CEFE02430D
:10637000187842EA4035D5E70F4805402068456067
:106380002068C16821F08001C160206880688006B3
:106390000AD4204600F08AF830B12068476284F8B9
:1063A0001D8026770120CDE72068476284F81D9084
:1063B00026770020C6E700003FFFFF002DE9F047E9
:1063C0000446007F0D46012811D04FF0010A84F8E1
:1063D0001CA0022060772068002680684FEA406099
:1063E00042B100281ADA287800F086FE17E0022071
:1063F000BDE8F087002800DBEE70287800F085FE0D
:106400000204687800F081FE42EA0022A87800F0D9
:106410007CFE0243E87842EA00470AE0EE70A87882
:10642000297840EA01476878E978000240EA0140AB
:1064300007432168CA2048622168532048622046E9
:1064400000F06EFE4FF0FF084FF00409E0B9164867
:106450000740206807602068816821F480218160FE
:10646000D5E90301084321688A68104388602068E1
:10647000C16821F08001C1602068806880060BD46B
:10648000204600F013F838B12168C1F8248084F860
:106490001D9026770120ABE72168C1F8248084F89D
:1064A0001DA026770020A3E77F7F7F0070B50446FC
:1064B0000068C16821F0A001C160FFF7A3F805469C
:1064C0004FF47A7607E000BFFFF79CF8401BB0421C
:1064D00001D9032070BD2068C0688006F4D5002073
:1064E00070BD4FF0E0210428086903D020F00400BB
:1064F0000861704740F00400FAE710B5401EB0F1A3
:10650000807F01D3012010BD4FF0E02460610F2196
:10651000601700F0E1FD0020A0610720206100204D
:1065200010BD70477047704730B590F83C20012A85
:106530001CD0012280F83C2003685A689C680C4DEE
:10654000AB4203D122F470054A682A4322F0700559
:106550000A6889682A4324F0800421435A6002684B
:106560009160002180F83C10084630BD022030BD0B
:10657000002C014010B5040003D094F83D0010B188
:1065800007E0012010BD002084F83C00204600F008
:106590000DF8022084F83D00211D206800F012FF54
:1065A000012084F83D00002010BD000008B50068FF
:1065B000B0F1804F12D10A48C16941F00101C161B7
:1065C000C069002200F00100009005211C20FFF7A7
:1065D000DBF8BDE808401C20FFF7CAB808BD000082
:1065E000001002400168CA6842F00102CA600068F7
:1065F000016841F0010101600020704770B5044658
:1066000090F83C00012817D0012584F83C50022066
:1066100084F83D0022689068364E304020F47F4078
:1066200090600868502839D00DDC20285BD005DC4C
:1066300098B3102843D153E0022070BD302855D0C4
:1066400040283CD141E0602830D070280CD0B0F513
:10665000805F03D0B0F5005F31D112E0206881681F
:10666000244A7032114016E0CB68D1E9012120683C
:1066700000F0EFFE21688868304040F077008860C5
:106680001DE0CB68D1E90121206800F0E2FE20681E
:10669000816841F48041816011E01EE0CA68496868
:1066A000206801F049F85021206806E0CA6849686E
:1066B000206801F052F86021206800F0D4FE84F8D0
:1066C0003D50002084F83C0070BDCA6849682068CD
:1066D00001F032F840212068EFE700212068ECE764
:1066E00010212068E9E720212068E6E730212068B2
:1066F000E3E7000088FFFEFF704770B504460068BE
:1067000001694FF00005C943890715D4C168C94321
:10671000890711D4E91E0161012020772068806972
:106720008007204602D0FFF7E7FF04E000F0BDF845
:10673000204600F06BF9257720680169C9434907B5
:1067400017D4C168C943490713D46FF0040101612C
:10675000022020772068806910F4407F204602D014
:10676000FFF7CAFF04E000F0A0F8204600F04EF961
:10677000257720680169C943090716D4C168C94350
:10678000090712D46FF00801016104202077206806
:10679000C0698007204602D0FFF7AEFF04E000F09A
:1067A00084F8204600F032F9257720680169C94352
:1067B000C90617D4C168C943C90613D46FF01001C4
:1067C0000161082020772068C06910F4407F2046CE
:1067D00002D0FFF791FF04E000F067F8204600F0D8
:1067E00015F9257720680169C943C90708D1C1682F
:1067F000C943C90704D1891E0161204600F02EF962
:1068000020680169C943090609D4C168C94309065A
:1068100005D46FF0800101612046FFF783FE2068F8
:106820000169C943C90509D4C168C943090605D42A
:106830006FF4807101612046FFF773FE20680169E3
:10684000C943490609D4C168C943490605D46FF054
:1068500040010161204600F017F920680169C94331
:1068600089060BD4C168C943890607D46FF020019B
:1068700001612046BDE87040FFF755BE70BD00B510
:10688000006885B0B0F1804F0DD12020009002202B
:1068900001900020029003900120049069464FF07F
:1068A0009040FEF7E9FD05B000BD704770B50446A5
:1068B00090F83C000D4601280ED0012684F83C607B
:1068C000022084F83D000C2A45D007DC5AB1042A86
:1068D0001BD0082A78D12CE0022070BD102A4ED09F
:1068E000142A71D15DE0206800F0C6FD206881693E
:1068F00041F0080181612068816921F00401816112
:10690000206881692A69114311E0206800F0F8FDD0
:106910002068816941F4006181612068816921F406
:1069200080618161206881692A6941EA022181616F
:106930004AE0206800F024FE2068C16941F00801A7
:10694000C1612068C16921F00401C1612068C16989
:106950002A69114311E0206800F052FE2068C169E5
:1069600041F40061C1612068C16921F48061C161A5
:106970002068C1692A6941EA0221C16124E02068D6
:1069800000F074FE2068416D41F008014165206807
:10699000416D21F0040141652068416D2A69114370
:1069A00011E0206800F094FE2068416D41F4006120
:1069B00041652068416D21F4806141652068416D29
:1069C0002A6941EA0221416584F83D60002084F88B
:1069D0003C0070BD10B5040003D094F83D0010B128
:1069E00007E0012010BD002084F83C00204600F0A4
:1069F0000CF8022084F83D00211D206800F0E2FC24
:106A0000012084F83D00002010BD70477047000051
:106A100010B504460068012200F010FD0B48216803
:106A2000814208D00A48814205D00A48814202D0FA
:106A30000948814203D1486C40F400404864206812
:106A4000016841F001010160002010BD002C0140EF
:106A500000400140004401400048014009484FF611
:106A6000FF7200234168914202DA491C416000E054
:106A700043608168914202DA491C816070478360FB
:106A8000704700000000002070477047704700000A
:106A900070B503680446D869196810F00F0508D16D
:106AA000820606D58A0604D52046BDE8704000F06F
:106AB0001DBF9A68002D66D002F0010501F49076A2
:106AC0002E4360D0C60707D0CE0505D501261E622D
:106AD000E36E43F00103E366830708D5D30706D0CE
:106AE000266802233362E36E43F00403E366430740
:106AF00008D5D20706D0236804221A62E26E42F05B
:106B00000202E26602070AD501F020022A4306D0FB
:106B1000236808221A62E26E42F00802E266E26E20
:106B2000002A29D0800604D5880602D5204600F028
:106B3000DDFEE06E000703D42068806840061CD5A7
:106B4000204600F0B8FE20688168490611D58168AA
:106B500021F040018160606E58B11C494163606E54
:106B6000FEF7B2FB002807D0606E416BBDE87040B5
:106B700008472046FFF78AFF70BD2046FFF786FFD3
:106B80000020E06670BDC5020ED552020CD54FF450
:106B900080101862202084F8690084F86A0020467A
:106BA000BDE87040FFF771BF020606D50A0604D59E
:106BB0002046BDE8704000F07BBF4006E2D54806A5
:106BC000E0D52046BDE8704000F083BEA378000801
:106BD00010B5040003D094F8690010B107E001205B
:106BE00010BD002084F86800204600F027F824201B
:106BF00084F869002068016821F0010101602046E5
:106C000000F0B0FE0128EBD0606A10B1204600F021
:106C1000B6FD2068416821F4904141602068816898
:106C200021F02A0181602068016841F001010160C2
:106C30002046BDE8104000F006BE000070B51E4EB4
:106C4000056800211D4802220323072486B0B542AF
:106C50001BD1856945F480458561806902AD00F4EA
:106C60008040059085E81A003020CDE90002694691
:106C70001348FEF701FC002205212520FEF784FDC4
:106C80002520FEF775FD06B070BD0E4EB542FAD157
:106C9000C56945F48025C561C06902AD00F4802056
:106CA000059085E81A004FF44060CDE9000269467E
:106CB0000548FEF7E1FBE6E700380140001002401E
:106CC00000080048004800400004004890F86A307E
:106CD000202B3FD1B9B1B2B190F86830012B39D037
:106CE000012380F868304165A0F85820A0F85A20A8
:106CF0008168FF22B1F5805F07D07F2351B1B1F1E8
:106D0000805F0CD010E001207047016921B940F28A
:106D1000FF1107E00169D1B9A0F85C2004E0016926
:106D2000A9B13F21A0F85C100021C166222280F8A1
:106D30006A2080F8681001688A6842F001028A605F
:106D40000068016841F49071016000207047A0F86C
:106D50005C30E9E70220704710B500680F498842AF
:106D60001BD10F480F4C007860760020211849781D
:106D70002154401CC0B21928F8D30A4801220849FE
:106D8000E038FFF7A3FF20785A2806D16078A528BD
:106D900003D103490120891E087010BD003801404D
:106DA00002000020D40200202DE9F843044690F8A8
:106DB00069001F4616460D4620284DD1CDB1C6B1FB
:106DC00094F86800012847D0012084F868004FF04B
:106DD0000008C4F86C80212084F869005034FEF764
:106DE00011FC24F8026B814624F852694FF4805656
:106DF00018E00120BDE8F883B4F85200401EA4F862
:106E000052004B46002280212046009700F082FE6F
:106E1000A0B9A068B04201D1206988B115F8010B72
:106E200021680885B4F852000028E5D14B460022BD
:106E300040212046009700F06DFE30B10320D9E7D5
:106E400035F8020BC0F30800EAE7202084F8690057
:106E500084F868800020CDE70220CBE77047FEE78A
:106E600030B5144887B04FF0A0410024C0E90014A9
:106E700084600461C46101254462C0E90B54C460AC
:106E8000056204214463C0E905148463FDF7D2FE62
:106E900000B1FEE700950394CDE9015404946946DE
:106EA00004480594FDF72CFD002800D0FEE707B04C
:106EB00030BD0000D00000200C4810B50A49016028
:106EC0001021416000218160C16001614161017652
:106ED00041768176C17601774177FEF74EF800283A
:106EE00000D0FEE710BD0000006400402401002037
:106EF00070B51B4886B0416941F400214161416988
:106F000001F400210591416941F400314161416979
:106F100001F400310591416941F4802141614069EA
:106F2000104E00F480204FF40055059000222946B1
:106F30003046FEF761FB0C4800240095CDE90104C2
:106F400069460A48FEF798FA01200095CDE9010448
:106F5000694630460394FEF78FFA06B070BD000014
:106F60000010024000040048000011100008004812
:106F700010B51C4886B01A490024C0E900147F21CE
:106F80008160FF21C0E9031444618461FFF748F97F
:106F900000B1FEE78DF800408DF801408DF8024009
:106FA0000394012269460F480494FFF707FA00B1E1
:106FB000FEE703208DF8140011208DF81500212024
:106FC0008DF8160018208DF81700012205A9054834
:106FD000FFF790F9002800D0FEE706B010BD0000D2
:106FE000002800409401002010B51D488EB04FF0DD
:106FF0008041016040F23F110024C0E90114632187
:10700000C0E903148461FFF7B5FA00B1FEE74FF45D
:1070100080500A900AA91248FFF7F0FA00B1FEE783
:107020000F48FFF7D7FC00B1FEE7079407A90C480B
:107030000994FFF779FA00B1FEE760200090322052
:10704000CDE901040022694605480494FFF72EFCAF
:1070500000B1FEE70248FFF712FC0EB010BD0000C1
:10706000B40100200C4810B50A4901604FF41651D4
:107070004160002181600C22C160C0E9041281617D
:10708000C16101624162FFF7A3FD002800D0FEE765
:1070900010BD000000380140F40100200C4810B57C
:1070A0000A4901604FF416514160002181600C22B1
:1070B000C160C0E904128161C16101624162FFF7F0
:1070C00087FD002800D0FEE710BD0000004800400A
:1070D00064020020FEE770470907090E002806DA5F
:1070E00000F00F0000F1E02080F8141D704700F15F
:1070F000E02080F800147047010901EB810100F0E5
:107100000F0000EB4100C0B27047002102E00A38D6
:10711000C0B2491C0A28FAD2090740EA1160704738
:1071200070B504460068C168490614D44FF0FF31B9
:10713000C160FEF767FA05464FF47A7607E000BFB4
:10714000FEF760FA401BB04201D9032070BD2068F1
:10715000C0684006F4D5002070BD00009FED111BF3
:1071600010B553EC112B51EC100BFDF7A9F89FED66
:107170000F1B53EC112BFDF7A3F89FED0E1B53ECE7
:10718000112BFDF70FF9FDF789F90346002211468F
:107190000A48FEF76FF8BDE8104000210748FEF7E7
:1071A00073B800000000000000408F4000000000A5
:1071B0000000B0400000000000C8A940700100209D
:1071C00088B0124DFDF7D0FA114C002201A904F14C
:1071D000F800FEF7F9FF002206A904F1F800FEF717
:1071E000D1FF9DF8060000909DF805309DF8042021
:1071F00008A1204600F0D8FC687818B104F1E80036
:10720000FEF735FA322000F051FFDBE700000020E6
:107210009C000020253032643A253032643A253013
:10722000326400000A4D4FF400544FF4FA76012204
:1072300021462846FEF7E0F9304600F037FF0022ED
:1072400021462846FEF7D8F9642000F02FFFEEE72C
:10725000000400482DED048B104C9FED118B9FED29
:10726000129B1348FDF74AFE0A211148FDF7DEFD87
:107270000F48FDF7DBFCE060FDF703F953EC182B3A
:10728000FDF71EF853EC192BFDF71AF8FDF71FF95F
:1072900020610A2000F00AFFE3E700000000002060
:1072A0006666666666660A40000000000000303FC1
:1072B000D000002010B5FEF7E1F9BDE8104000F065
:1072C00001BF000030B59DB00A20009001200225CA
:1072D000CDE906051021CDE9040100244FF460102A
:1072E000CDE908406846FEF785FC00B1FEE70F20B7
:1072F000CDE917058020CDE91904012117A81B94B9
:10730000FEF76EFB00B1FEE70F480A904FF40070E5
:10731000CDE90B044FF4A07010900AA8FEF766FAAE
:1073200000B1FEE7FEF7FEFB4FF47A71B0FBF1F01F
:10733000FFF7E3F80420FFF7D4F800220F21501ED6
:10734000FEF722FA1DB030BD81000100144801682B
:1073500041F4700101601348016841F001010160CE
:107360004168114A114041600168104A11400160B2
:10737000016821F480210160416821F4FE0141602F
:10738000C16A21F00F01C162016B094A114001631A
:107390000021816002490748803908607047000079
:1073A00088ED00E0001002400CC07FF8FFFFF6FE01
:1073B000CCFC00FF004000080148FFF79EB9000028
:1073C000B4010020F0B50268184B4FF08047984296
:1073D00001D0B84203D122F070044A682243144C11
:1073E000144D154E984207D0B84205D0A04203D0A4
:1073F000A84201D0B04203D122F44077CA683A4390
:107400004F6922F080023A4302608A68C2620A68C9
:107410008262984205D0A04203D0A84201D0B04277
:1074200001D10969016301214161F0BD002C0140D6
:1074300000400140004401400048014010B50123D4
:10744000046A8B409C430462036A8A4013430362CC
:1074500010BD10B5846842EA032224F47F440A4335
:107460002243826010BD826822F070020A4342F01B
:107470000701816070470000F0B5026A22F0010246
:107480000262056A43688269184C25F002052240B1
:107490000C6822F0030214438A68164E2A43144DE6
:1074A000154FDFF858C0A84205D0B04203D0B8420B
:1074B00001D0604506D122F0080ECA6842EA0E02E9
:1074C00022F00402A84205D0B04203D0B84201D055
:1074D000604505D14D6923F440731D438B692B43EF
:1074E00043608461496841630262F0BD8FFFFEFF23
:1074F000002C014000400140004401400048014090
:1075000030B5026A22F010020262046A426883699E
:10751000164D2B400D6823F4407343EA052524F0F3
:1075200020038C6843EA0413114CA04207D1CC68B5
:1075300023F0800343EA041323F0400308E00D4CDA
:10754000A04205D00C4CA04202D00C4CA04207D166
:107550004C6922F4406242EA84028C6942EA840265
:107560004260856149688163036230BDFF8FFFFE21
:10757000002C01400040014000440140004801400F
:1075800030B5026A22F480720262046A4268C369FA
:10759000164D2B400D6823F003031D4324F40073A4
:1075A0008C6843EA0423124CA04207D1CC6823F430
:1075B000006343EA042323F4806308E00D4CA042F7
:1075C00005D00D4CA04202D00C4CA04207D14C6912
:1075D00022F4405242EA04128C6942EA04124260E8
:1075E000C5614968C163036230BD00008FFFFEFFC3
:1075F000002C01400040014000440140004801408F
:1076000030B5026A22F480520262046A4268C36999
:10761000114D24F400542B400D6823F4407343EAC9
:1076200005238D6844EA05340C4DA84208D00C4D62
:10763000A84205D00B4DA84202D00B4DA84204D160
:107640004D6922F4804242EA85124260C361496872
:107650000164046230BD0000FF8FFFFE002C01407A
:1076600000400140004401400048014030B5026A3A
:1076700022F480320262046A4268436D0F4D2B404F
:107680000D681D4324F400330C8943EA04430C4C79
:10769000A04208D00B4CA04205D00B4CA04202D017
:1076A0000A4CA04204D14C6922F4803242EA0422FE
:1076B0004260456549688165036230BD8FFFFEFF0A
:1076C000002C0140004001400044014000480140BE
:1076D00030B5026A22F480120262046A4268436D85
:1076E000104D24F400142B400D6843EA05230D8946
:1076F00044EA05540C4DA84208D00C4DA84205D0D0
:107700000B4DA84202D00B4DA84204D14D6922F482
:10771000802242EA8522426043654968C16504626D
:1077200030BD0000FF8FFFFE002C014000400140F3
:10773000004401400048014010B5036A046A24F087
:1077400001040462846924F0F00444EA021423F082
:107750000A020A438461026210BD10B5036A23F075
:10776000100303628369046A23F4704343EA02321C
:1077700024F0A00343EA01118261016210BD90F878
:107780002410C90706D001684A68836A22F40032CF
:107790001A434A6090F82410890706D501684A68A0
:1077A000C36A22F480321A434A6090F824104907D1
:1077B00006D501684A68036B22F480221A434A60A6
:1077C00090F82410090706D501684A68436B22F433
:1077D00000421A434A6090F82410C90606D5016891
:1077E0008A68836B22F480521A438A6090F82410CE
:1077F000890606D501688A68C36B22F400521A43D1
:107800008A6090F82410490611D501684A68036C13
:1078100022F480121A434A60016CB1F5801F06D130
:1078200001684A68436C22F4C0021A434A6090F827
:107830002410090606D501684A68806C22F40022EB
:1078400002434A607047F8B500260446C666FDF755
:10785000D9FE0546206800686FF07E47000708D50E
:107860002B4600224FF400112046009700F052F9F9
:1078700060B92068006840070AD52B4600224FF403
:1078800080012046009700F045F908B10320F8BDBB
:10789000202084F8690084F86A0084F86860002079
:1078A000F8BD10B5406A0021A0F85A10A0F8521097
:1078B000FFF7ECF810BD01680A6822F490720A60C4
:1078C00001688A6822F001028A60202180F86A102B
:1078D000704710B501680A6822F040020A60202152
:1078E00080F86910FFF7BAFA002010BD10B5B0F8A3
:1078F0005C2090F86A300168222B05D0886940F03E
:1079000008008861022010BD898C8368B3F5805F10
:1079100001D103696BB11140426D531C4365117075
:10792000B0F85A10491E0904090CA0F85A1007D0E3
:1079300015E0436D11401980416D891C4165EFE7E9
:1079400001680A6822F490720A6001688A6822F06D
:1079500001028A60202180F86A10FFF7FDF90020FB
:1079600010BD00002DE9F041044610202369A268F3
:10797000E6691A436369002133431A4323680D46BD
:107980001E68444F3E4016431E6022685368E668F6
:1079900023F4405333435360236AA2691A43236894
:1079A0009E6826F4306616439E603B4B22689A42DE
:1079B00010D13A4B1B6B13F0030311D0012B05D0F0
:1079C000022B05D0032B0CD102200AE0042008E092
:1079D000082006E0324B9A4202D0324B9A4200D144
:1079E0000020E6694FF400439E4226D109281DD2AB
:1079F000DFE800F00508121C151C1C1C1800FEF71F
:107A000097F801E0FEF7ACF84100606801EB500127
:107A1000B1FBF0F081B20AE023496068F6E7FEF7B7
:107A2000B7F8F1E74FF480316068EFE7012521F006
:107A30000F00C1F3420108431CE0092825D2DFE80A
:107A400000F005080B24102424241C00FEF770F815
:107A500009E0FEF785F806E01449606801EB500183
:107A60000EE0FEF795F80146606801EB5001B1FBAE
:107A7000F0F080B22168C86008E0606803EB500154
:107A8000B1FBF0F080B2D06000E001252846BDE8EF
:107A9000F0810000F369FFEF003801400010024060
:107AA00000440040004800400024F40000127A0026
:107AB00090F86910212901D002207047B0F85210C7
:107AC00021B18168B1F5805F0BD00CE001680A68D4
:107AD00022F080020A600068016841F04001016004
:107AE0000CE0016961B1C16C4A1CC264026809788A
:107AF000A2F8281030F8521F491E0180002070475C
:107B0000C16C02680988C1F308011185C16C891C28
:107B1000C164EFE72DE9F041984617460E4604464A
:107B2000069D1DE0681C1BD02DB1FDF76BFDA0EB81
:107B30000800A84214D92068016821F4D0710160BE
:107B40002068816821F001018160202084F86900AB
:107B500084F86A00002084F868000320BDE8F08102
:107B60002068C06936EA000004D00020B842D9D0AD
:107B70000020F3E70120F9E70148FEF789BF000084
:107B8000F4010020FEE700000FB4054B10B503A977
:107B9000044A029800F02CF810BC5DF814FB0000B9
:107BA0003D7F0008980000200FB4084B10B504A9D1
:107BB00002AA039800F01CF8044602A9002000F075
:107BC000B8F9204610BC5DF814FB0000337F0008B4
:107BD00002E008C8121F08C1002AFAD17047704796
:107BE000002001E001C1121F002AFBD170470000F4
:107BF0002DE9FF4F8BB088460546002606E0252874
:107C00000BD0DDE90D1290476D1C761C28780028FA
:107C1000F5D10FB03046BDE8F08F0024A146A24652
:107C20000122AE4900E0044315F8013F203B02FA6F
:107C300003F00842F7D128782A2810D06FF02F02DD
:107C40002878A0F13001092915D809EB890102EB48
:107C5000410144F0020400EB01096D1CF0E758F803
:107C6000041B5FEA010903D544F40054C9F100097B
:107C700044F002046D1C28782E2817D115F8010F46
:107C800044F004042A280ED06FF02F022878A0F1C7
:107C9000300109290AD80AEB8A0102EB410100EB05
:107CA000010A6D1CF2E758F804AB6D1C28786C28AB
:107CB0000FD006DC4C2817D068280DD06A2814D1C4
:107CC00004E0742810D07A280FD10DE044F4001499
:107CD0000AE044F4801401E044F4401469788142DD
:107CE00002D104F580146D1C6D1C2878692865D0BC
:107CF00006DC00288DD0632827D0642806D15DE0FB
:107D00006E2808D073282AD0752877D0DDE90D12A7
:107D10009047761CE0E0C4F30250022809D0032803
:107D20000DD0D8F8001004280DD00E6008F104081A
:107D3000D2E0D8F80010F217C1E90062F6E7D8F8EF
:107D400000100E80F2E70E70F0E718F8041B8DF8B3
:107D5000001000208DF80100EB46012003E058F8E8
:107D600004BB4FF0FF3061074FF0000701D40AE079
:107D70007F1C57450DDA8742FADB1BF807100029F4
:107D8000F6D106E07F1C8742FCDB1BF807100029B8
:107D9000F8D1DDE90D23A9EB07008146214600F06B
:107DA000B1F83044C61904E0DDE90D121BF8010BEF
:107DB00090477F1EF8D22146484688E058F8040BC9
:107DC000C4F302514FF00A0B032900D100B2042979
:107DD00000D140B2002802DA40422D2102E0210504
:107DE00005D52B218DF82410012104E006E0E107E0
:107DF00010D02021F6E708AF089113E058F8040BE3
:107E0000C4F302514FF00A0B032900D180B20429B8
:107E100000D1C0B20021EEE75946FCF774FB3031C7
:107E200007F8011D0028F7D1ADEB070000F1200B8A
:107E3000600702D524F4803401E04FF0010ADA45EE
:107E400002DDAAEB0B0000E00020824600EB0B01F4
:107E500008980144A9EB01000A90E00306D4DDE98B
:107E60000D2321460A9800F04DF806444FF0000912
:107E700008E009A911F80900DDE90D12904709F1A0
:107E80000109761C08998945F3DBE0030CD5DDE98F
:107E90000D2321460A9800F035F8064404E0DDE998
:107EA0000D1230209047761CBAF10001AAF1010AA8
:107EB000F5DC05E0DDE90D1217F8010B9047761CA3
:107EC000BBF10001ABF1010BF4DC0A982146DDE9BE
:107ED0000D2300F005F806446D1C97E60928010003
:107EE0002DE9F041044600251E461746880404D4B7
:107EF00005E039462020B0476D1C641EF9D52846A0
:107F0000BDE8F0812DE9F041044600251E4690466B
:107F1000C80301D5302700E02027880404D505E0F8
:107F200041463846B0476D1C641EF9D52846BDE869
:107F3000F0810A68531C0B601070704713B54FF640
:107F4000FF73012269460248FEF72EFF00981CBD10
:107F5000F401002094B0FDF799FBFFF7B3F9FEF7A9
:107F6000C7FFFFF77FF8FFF73FF8FFF701F8434D32
:107F700041480024C5E9000440F6FF70E860A860AD
:107F80002846FDF745FB00B1FEE7FEF795FFFEF73B
:107F900067FF3A493A48143908600846FDF735F951
:107FA00000B1FEE735480F9400220FA91438109451
:107FB000FDF70AF900B1FEE7304832493838016070
:107FC000047144714461012184610162FDF7AEF8DE
:107FD00000B1FEE7FFF762F828483030FEF702FBF9
:107FE00029684CF6CC4008602448012226497030AC
:107FF000FEF76CFE214800213030FEF709FD01221A
:1080000051032248FDF7F8FA9FED210BFFF7A6F880
:1080100021A0FFF7B9FDAA208DF8480017484FF4BA
:108020008073012212A97030FEF7BEFE14221B4994
:108030006846FCF733F90021684600F04DF8124C11
:108040001649A41E14226061143105A8FCF726F914
:10805000002105A800F040F81049A0611422283141
:108060000AA8FCF71BF900210AA800F035F8E06126
:1080700000F023F8FEE700000030004084010020FB
:10808000007400400030024002000020000400485C
:10809000000000000000F83F4F4E0000E08A00089A
:1080A00001460020842900D0C81C704710B500B9D3
:1080B000012000F0FFFA002010BD10B500F020FBF9
:1080C000002010BD10B500F037FC012803D0BDE83A
:1080D000104000F0EFBB10BD3EB504460D46B0F9B0
:1080E0000800FFF7DDFF02A9CDE90001208A2B4639
:1080F00082B2D4E9001000F0F3FB012801D0002087
:108100003EBD02983EBD00002DE9F041184C0F46DF
:108110000546E6682068001D00F016FA38B92068A8
:1081200090F82C1001208840216981432161681C4E
:1081300007D137B12168BDE8F0410E48091D00F0B4
:108140003BBA20683544B5424560216805D2A06B32
:10815000BDE8F041091D00F017BA606B091D00F081
:1081600013FAA06A854200D2A562BDE8F081000042
:108170005C000020EC0F00202DE9F041054600F0E6
:1081800027FA2E4CA068401CA06020682C4F10B12C
:10819000606940B32DE02560A068012829D1002640
:1081A00006EB860007EB800000F0E0F9761C072E56
:1081B000F6D323488C3000F0D9F92148A03000F0E4
:1081C000D5F91F48B43000F0D1F91D48C83000F08F
:1081D000CDF91B48DC3000F0C9F919488C306063D8
:1081E0001430A06305E02068E96AC06A884200D8BC
:1081F0002560606A401C6062E96A0120226988404B
:108200001043206101EB810007EB8000291D00F085
:10821000D3F900F0FDF9606900280CD02068E96A04
:10822000C06A884207D207494FF080500860BFF308
:108230004F8FBFF36F8FBDE8F08100005C0000201E
:10824000100F002004ED00E070B5114E114C17E046
:1082500000F08AFA3068B8B100F0E0FB00F0B8F93D
:10826000F068C568281D00F06FF9A068401EA06086
:108270006068401E606000F0CBF9284600F00CF802
:1082800060680028E4D170BD00F0C8FBF8E700008A
:10829000D80F00205C00002010B50446006B00F0F1
:1082A000CBF92046BDE8104000F0C6B910484FF4A5
:1082B0004061420706D0C01D0D4920F00700411A59
:1082C000C1F540610B4A00230144C2E900030839AB
:1082D000103A21F0070111604B600B600B1AC0E9E6
:1082E000001393604FF000405360D060704700006F
:1082F0001003002048000020074C4FF08056074D27
:10830000FFF7A2FF20680128FAD92E60BFF34F8F34
:10831000BFF36F8FF4E70000100F002004ED00E0C2
:108320002DE9F0479A46DDE9098481466FF00303A1
:10833000206B03EB82021044089D20F007067007B3
:1083400007D0502080F31188BFF34F8FBFF36F8F9A
:10835000FEE723180A5C83F834200A5C12B1401C43
:108360001028F6D3002784F84370072D00D3062584
:10837000E562C4E91157201D00F003F904F118006B
:1083800000F0FFF82461C5F107006462A061E764B2
:1083900084F8507052464946304600F0BFF82060DD
:1083A000B8F1000F01D0C8F80040BDE8F087000028
:1083B00030B5114900E011460A688242FBD34B6890
:1083C0005C18844203D140681844486008464368FA
:1083D0001C18944209D1084C103C2468A24209D0D0
:1083E00052681A4442600A6812680260814200D0F2
:1083F000086030BD0460F9E7480000200648416B82
:10840000096829B1416BC968C968496881627047C8
:108410004FF0FF31FAE700005C0000200848406898
:10842000401C4FF0500080F3118804D0BFF34F8FF1
:10843000BFF36F8FFEE7BFF34F8FBFF36F8FFEE782
:10844000500000202DE9F0410546002700F08CF98E
:10845000314E306808B9FFF729FFF06805424BD16B
:10846000C5B3083568070ED005F00700C0F1080055
:108470000544680707D0502080F31188BFF34F8F61
:10848000BFF36F8FFEE72DB37068854234D8224862
:10849000103001460C6801E020460C466168A94294
:1084A00002D221680029F7D131688C4224D00768B4
:1084B0002168016060680837411B10290FD96019D5
:1084C000420708D0502080F31188BFF34F8FBFF3CD
:1084D0006F8FFEE710E041606560FFF769FF61683C
:1084E0007068401A7060B268904200D2B060F06864
:1084F00001430020C4E9000100F090FA780707D09A
:10850000502080F31188BFF34F8FBFF36F8FFEE7CA
:108510003846BDE8F08100003800002010B5031F88
:108520004FF080741C601B1F21F001011960191F9E
:10853000044B0B6014390A60091F6FF002024438C3
:108540000A6010BD1D840008D0E9013201699A60FB
:10855000D0E901235A604A68824201D182684A60A8
:10856000002202610868401E0860704700F108019F
:108570004FF0FF32C0E90112C160016100210160CA
:10858000704700210161704730B50B685A1C02D05A
:1085900000F1080202E0026904E0224654682568FE
:1085A0009D42FAD953684B6099608A6051600861B6
:1085B0000168491C016030BD42684A6093688B6065
:1085C00093685960916008610168491C01607047B7
:1085D000502080F31188BFF34F8FBFF36F8F0A498C
:1085E0004868401C486001280CD10848006810F019
:1085F000FF0F07D0502080F31188BFF34F8FBFF3D8
:108600006F8FFEE7704700005000002004ED00E08F
:108610000849486828B1401E486001D180F311889C
:108620007047502080F31188BFF34F8FBFF36F8FD7
:10863000FEE700005000002070B5002827D0144D40
:10864000A0F108046168E868014207D1502080F376
:108650001188BFF34F8FBFF36F8FFEE722683AB1E7
:10866000502080F31188BFF34F8FBFF36F8FFEE769
:108670008143616000F078F8606869680844686068
:108680002046FFF795FEBDE8704000F0C7B970BD09
:108690003800002006484FF47A710068B0FBF1F111
:1086A0004FF0E020491E4161072101617047000041
:1086B0003400002010B5020014D00F48006B38B110
:1086C000502080F31188BFF34F8FBFF36F8FFEE709
:1086D00000F04AF800211046FFF716FD00F09EF961
:1086E000002807D105494FF080500860BFF34F8F35
:1086F000BFF36F8F10BD00005C00002004ED00E0B0
:108700001CB515480024CDE900402346802213A162
:10871000144800F0E5F8012809D0401C1AD1502077
:1087200080F31188BFF34F8FBFF36F8FFEE75020A8
:1087300080F31188BFF34F8FBFF36F8F06484FF060
:10874000FF312C38816201214161C460BDE81C40C9
:1087500000F040B81CBD00008800002049444C4592
:1087600000000000F98200080248016B491C016307
:10877000704700005C0000201448016B11B101211A
:10878000C16170470021C1610169B1FA81F1C1F194
:108790001F0101EB81020E4951F822306BB101EB50
:1087A000820101F108034A6852684A609A4201D185
:1087B00052684A60D16801607047502080F3118888
:1087C000BFF34F8FBFF36F8FFEE700005C00002008
:1087D000100F00201CB532480168324A914207D17F
:1087E000502080F31188BFF34F8FBFF36F8FFEE7E8
:1087F00000682C49491E884207D1502080F3118817
:10880000BFF34F8FBFF36F8FFEE7274908780190C2
:10881000FF20087008788DF800009DF800009DF892
:10882000002000F0F000904207D0502080F3118823
:10883000BFF34F8FBFF36F8FFEE79DF800001B4A19
:1088400000F0500010700720906005E09DF80030A7
:108850005B008DF80030401E9DF800301B06F5D4FB
:10886000000200F4E0609060019808700C4820302D
:10887000016841F470010160016841F070410160DC
:10888000FFF708FF00205060FBF7A8FC08480168CC
:1088900041F040410160FBF791FC00201CBD00004D
:1088A00000ED00E071C20F4100E400E05000002044
:1088B00034EF00E010B5502080F31188BFF34F8FE4
:1088C000BFF36F8F00F046F818B104494FF08050A5
:1088D0000860002080F3118810BD000004ED00E066
:1088E0002DE9FF5F8346DDE90E87994616468A46E5
:1088F0009000FFF7A7FD05001AD05420FFF7A2FD56
:10890000040012D025630021CDE90241CDE90087A2
:108910004B46324651465846FFF702FD2046FFF7C8
:108920002BFC012004B0BDE8F09F2846FFF784FE31
:108930004FF0FF30F6E700000548416919B1006BC0
:1089400018B10020704701207047022070470000D6
:108950005C0000202DE9F0412E4C0027206B40B137
:10896000A069401CA061E06900B101273846BDE85C
:10897000F081E668761CE66013D1606B006838B160
:10898000502080F31188BFF34F8FBFF36F8FFEE746
:10899000606BA16B6163A063206A401C2062FFF7DB
:1089A0002DFDA06ADFF87080864209D3606B0068F5
:1089B00080B1606BC068C568686886420DD2A062ED
:1089C0002068C06A00EB800158F821000128CAD94C
:1089D0000127C8E74FF0FF30F1E7281DFFF7B4FD8E
:1089E000A86A18B105F11800FFF7AEFDE86A012189
:1089F000226981401143216100EB800108EB810075
:108A0000291DFFF7D9FDE86A2168C96A8842CDD3DC
:108A10000127CBE75C000020100F00202DE9F04774
:108A20002C4D00242746286B38B1FFF7D1FD286B69
:108A3000401E2863286B40B146E0502080F3118827
:108A4000BFF34F8FBFF36F8FFEE7A968224E01205F
:108A5000D1B3A6F1B40980463068E8B1F068C468C3
:108A600004F11800FFF770FD201DFFF76DFDE06AAF
:108A70002A6908FA00F11143296100EB800109EB32
:108A80008100211DFFF798FDE06A2968C96A8842C4
:108A9000E2D3C5F81C80DFE70CB1FFF7AFFCAC698F
:108AA00044B14646FFF756FF00B1EE61641EF9D1AE
:108AB0000020A861E86938B1084901273807086033
:108AC000BFF34F8FBFF36F8FFFF7A2FD3846BDE8AE
:108AD000F08700005C000020C40F002004ED00E0DF
:108AE000748B0008C1710008000000000000000045
:108AF00080000000648B000825720008FEFF000063
:108B00000000000080000000548B0008557200082F
:108B100000000000000000008000000002030405C7
:108B2000060708090A0B0C0D0E0F101001020304B2
:108B300005060708090A0B0C0D0E0F1000000000B7
:108B400000000000010203040607080900000000FD
:108B50000102030452656164414443315461736B03
:108B6000000000004C6564466C6173685461736B6F
:108B70000000000064656661756C745461736B007D
:108B8000A08B0008000000209C000000D07B0008A3
:108B90003C8C00089C00002064130000E07B00086F
:108BA00000010000000000000000000000000000C4
:108BB00000000000000000000000000000000000B5
:108BC0000000000000000000010000001000000094
:108BD0000000000000127A00000000000000000009
:108BE0000000000000000000000000000000000085
:108BF00000000000AAAAAAAA0000000000000000CD
:108C00000000000000000000000000000000000064
:108C10000000000000000000000000000000000054
:108C20000000000000000000000000000000000044
:0C8C300000000000000000000000000038
:040000050800418925
:00000001FF
