:020000040800F2
:10000000200500209D0100089B1A0008DF19000848
:10001000991A0008050200089D2000080000000051
:10002000000000000000000000000000BF1A0008EF
:100030005D02000800000000BD1A0008C11A000897
:10004000B7010008B7010008B7010008B7010008B0
:10005000B7010008B7010008B7010008B7010008A0
:10006000B7010008B7010008B7010008B701000890
:10007000B7010008B7010008B7010008B701000880
:10008000B7010008B7010008B7010008B701000870
:10009000B7010008B7010008B7010008B701000860
:1000A000B7010008B7010008B7010008B701000850
:1000B000A91B00080000000000000000B7010008B4
:1000C000B7010008B7010008B701000800000000F0
:1000D000B701000891200008B7010008B701000827
:1000E000B7010008B7010008B701000800000000D0
:1000F0000000000000000000000000000000000000
:10010000000000000000000000000000B70100082F
:100110000000000000000000B7010008000000001F
:1001200000000000000000000000000000000000CF
:1001300000000000000000000000000000000000BF
:10014000B7010008B701000800000000000000002F
:10015000000000000000000000000000000000009F
:10016000B7010008B7010008B7010008B70100088F
:10017000B7010008000000000000000000000000BF
:1001800000000000B7010008DFF80CD000F028F8EC
:1001900000480047BD200008200500200648804791
:1001A00006480047FEE7FEE7FEE7FEE7FEE7FEE75C
:1001B000FEE7FEE7FEE7FEE7411B000889010008B5
:1001C000202A04DB203A21FA02F00021704721FAAC
:1001D00002F3D040C2F12002914008431946704713
:1001E000064C074D06E0E06840F0010394E8070084
:1001F00098471034AC42F6D3FFF7CAFFB824000882
:10020000D8240008FEE7000070B5A0F5AA415539D2
:1002100021D1114C5A2000252070A5206070A570B6
:10022000AA20E0705520207105222946204600F0C2
:100230008BF86071002004F10A010D54401CC0B21B
:100240000428FAD3BDE87040034964230622A1F1D3
:10025000700001F069BB70BDD8000020704700003D
:1002600006490020C8610648016941F004010161A6
:10027000016941F040010161704700000001002068
:1002800000200240064A0021D16106490A6942F075
:1002900002020A614861086940F040000861704745
:1002A0000001002000200240044B0022DA61044AD1
:1002B000136943F0010313610180704700010020BE
:1002C000002002400A490020CA68D306094A04D522
:1002D000D06940F00200D0611020CB685B0705D5E3
:1002E000D36943F00103D36140F00400C860704754
:1002F000002002400001002070B5054600F030FAF1
:100300000646104C09E0681C07D025B100F028FA19
:10031000801BA84201D9032070BDE068C007F2D15C
:10032000E068800601D52020E060E068C00602D4C5
:10033000E068400703D5FFF7C5FF012070BD00202E
:1003400070BD00000020024030B50024234605E0C7
:10035000CD185B1C455DDBB22C44A4B29342F7D3AD
:10036000E0B230BD1FB50020039000900648019018
:100370000B20029000F01AF903A9684600F078F803
:1003800000F0CAF81FBD0000004000082DE9F04150
:100390000E461249044608441F469046B0F53B4FAE
:1003A0001AD800F003F900250EE000BF08EB450065
:1003B0000023315C3044407801EB002221460120CB
:1003C00000F0B4F8A41C6D1CB5EB570FEEDB00F089
:1003D000A3F80020BDE8F0810220FBE700C0FFF792
:1003E0000148008870470000FCFF00081FB5044664
:1003F000002003900090094801900120029000F035
:10040000D5F803A9684600F033F8224600230449D2
:10041000012000F08BF800F07FF81FBD00FC000801
:10042000FCFF000810B590F821100024022903D029
:1004300004218163012418E001680A6822F00E0299
:100440000A6001680A6822F001020A6090F8402000
:10045000C36B012101FA02F25A6080F821100021D9
:1004600080F82010416B01B18847204610BD000084
:100470002DE9F047054626480F460126017E012951
:100480000FD00121814601762868DFF888804CF280
:100490005034012808D0A2462046FFF72DFFA0B116
:1004A00030E00220BDE8F0872046FFF725FF00BBC3
:1004B000FFF7D6FE2046FFF71FFFD8F810100646BC
:1004C00021F00401C8F810101CE04FF0FF30386034
:1004D0006C6811E02046FFF7D5FE5046FFF70CFF91
:1004E000D8F81010060021F00201C8F8101001D051
:1004F0003C6007E004F50064D5E9010100EBC12090
:10050000A042E7D8002189F818103046CAE7000059
:1005100000010020002002400348016941F08001F1
:100520000161002070470000002002402DE9F05FCB
:1005300007461C4888460024017E15461E460129B0
:1005400009D00121814601764CF2503A5046FFF71E
:10055000D3FE18B122E00220BDE8F09F012F02D0A7
:10056000022F00D00427D346DFF83CA02201284602
:100570003146FFF725FE81B208EB4400FFF794FEF9
:100580005846FFF7B9FEDAF8102022F00102CAF847
:10059000102018B9641CE4B2BC42E7D3002289F8E9
:1005A0001820D9E700010020002002400649002061
:1005B0000A69120607D5054A4A60054A4A60096970
:1005C000090600D50120704700200240230167453D
:1005D000AB89EFCD2DE9F84FDFF860B100234FF084
:1005E000010C4FF0030A4FF00F090BF1040E9DE0D0
:1005F0000CFA03F6344022007ED04C68022C01D065
:10060000122C0ED1DC0800EB8408D8F820405D07DE
:10061000EF0E09FA07F5AC430D69BD402543C8F854
:10062000205007685D0091F804800AFA05F408F08C
:100630000308A74308FA05F848EA0708C0F800804D
:100640004F68012F05D0022F03D0112F01D0122F98
:1006500011D18768D1F80C80A74308FA05F848EA59
:100660000708C0F808804768B7430E79C6F300163C
:100670009E403E434660C668A6438C68AC40344307
:10068000C4604C68E40050D52D4CA56945F00105C7
:10069000A561A46923F0030504F001040094294C2A
:1006A0002E19B4689D072F0F09FA07F5AC43B0F176
:1006B000904F04D0244DA84203D101250CE0002521
:1006C0000AE0224DA84201D1022505E0204DA842B2
:1006D00001D1032500E00525BD402543B560DBF8C9
:1006E00000405D464E689443F60300D514432C60E9
:1006F0007546DEF8004000E017E04E689443B6030C
:1007000000D514432C600D4D08352C684E68944379
:10071000F60200D514432C60084D0C352C684E6849
:100720009443B60200D514432C605B1C0A6814463F
:10073000DA407FF45DAFBDE8F88F000000040140AF
:10074000001002400000014000040048000800487A
:10075000000C00480AB18161704781627047000057
:100760000148806870470000180000200248816836
:10077000027811448160704718000020074810B5C6
:10078000016841F010010160032000F095F800209D
:1007900000F006F800F024F8002010BD0020024010
:1007A00070B50D4D04464FF47A712878B1FBF0F026
:1007B0000A490968B1FBF0F000F069FD48B9102C56
:1007C00007D200222146501E00F056F800206C602F
:1007D00070BD012070BD0000180000202400002022
:1007E0001E4808B5816941F001018161816901F00C
:1007F00001010091C16941F08051C161C06900F0FF
:1008000080500090032000F057F8002211466FF04E
:100810000B0000F031F8002211466FF00A0000F0E2
:100820002BF8002211466FF0090000F025F8002295
:100830001146501F00F020F800221146101F00F052
:100840001BF800221146901E00F016F80022BDE8A9
:1008500008401146501E00F00FB800000010024082
:1008600000F01F02012191404009800000F1E020CA
:10087000C0F8001170470000F0B40E4B1B680C4626
:10088000C3F30223C3F10705042D00D90425191D64
:10089000072901D2002300E0DB1E012606FA05F13C
:1008A000491E214099409E40761E16403143F0BCBF
:1008B00001F0F4B80CED00E0064900F0070208680A
:1008C0004FF6FF03184040EA0220034A1043086035
:1008D000704700000CED00E00000FA052DE9F84F2C
:1008E00005460068774CC0036FD5E0690026C0005C
:1008F00008D4E06940F08050E061E069012600F032
:100900008050009070480168C90512D40168804683
:1009100041F480710160FFF723FF074605E000BF47
:10092000FFF71EFFC01B642835D8D8F80000C005AB
:10093000F6D5206A10F4407053D0A98801F44071B4
:1009400081424ED0206A4FF4803191FAA1F2B2FA7E
:1009500082F297005D4A4FF00108174420F440707E
:10096000C7F8008491FAA1F1B1FA81F102EB81019B
:100970000023C1F800342062C00732D0FFF7F0FE38
:10098000074641F2883A4FF0020907E0FFF7E8FE18
:10099000C11B514502D90320BDE8F88F99FAA9F18E
:1009A000B1FA81F141F040014846B8EB511F01D145
:1009B00021680CE090FAA0F1B1FA81F141F0400118
:1009C000B0EB511F02D1216A01E015E0616A99FA8A
:1009D000A9F0B0FA80F000F01F0008FA00F211420E
:1009E000D4D0206A696820F44070084320621EB1A8
:1009F000E06920F08050E0612878C00705D0206BC6
:100A0000A96820F00300084320632878800605D5F4
:100A1000206BE96820F010000843206328688003F9
:100A200005D56068296B20F4800008436060287851
:100A3000400605D5206B296920F02000084320637B
:100A40002888000405D5206B696920F04000084320
:100A500020632888800505D56068E96920F40000D6
:100A6000084360602878000605D5E06AA96920F48B
:100A7000F8700843E0622888C00405D5206B296A15
:100A800020F48070084320632868400305D5206B5C
:100A9000696A20F48060084320632868000305D554
:100AA000206BA96A20F40060084320632868C00214
:100AB00005D5206BE96A20F400500843206300202C
:100AC0006AE700000010024000700040000042424F
:100AD0002DE9F0470F46050069D04A4E306800F016
:100AE0000700B84209D2306820F007003843306070
:100AF000306800F00700B84259D12878424C80078E
:100B000005D56068A96820F0F00008436060287887
:100B1000C0073DD06968012001290DD0022923D0EA
:100B20005FF0020393FAA3F2B2FA82F242F02002DB
:100B3000520904D0226803E04FF40033F2E7626AFE
:100B400093FAA3F3B3FA83F303F01F03984002422E
:100B50002DD0606820F0030008436060FFF700FEBE
:100B6000804641F288390CE04FF00073DAE700BFAD
:100B7000FFF7F6FDA0EB0801494502D90320BDE8C7
:100B8000F0876068696800F00C00B0EB810FEFD16E
:100B9000306800F00700B8420BD9306820F0070039
:100BA00038433060306800F00700B84201D00120BF
:100BB000E5E72878400705D56068E96820F4E0603B
:100BC000084360602878000706D56068296920F42A
:100BD000605040EAC100606000F052F86168F022A5
:100BE00092FAA2F201F0F001B2FA82F2D140074A81
:100BF000515CC840064908600020FFF7D1FD002085
:100C0000BDE700000020024000100240A0240008C0
:100C100024000020014800687047000024000020E4
:100C200008480949006849684FF4E06292FAA2F264
:100C300001F4E061B2FA82F2D140044A515CC8404A
:100C4000704700002400002000100240B02400087B
:100C500008480949006849684FF4605292FAA2F2C4
:100C600001F46051B2FA82F2D140044A515CC840AA
:100C7000704700002400002000100240B02400084B
:100C8000144B10B55A68144802F00C0104291DD009
:100C900008291BD14FF4701494FAA4F402F47011D3
:100CA000B4FA84F4E1400D4CDB6A615C0F2494FAE1
:100CB000A4F403F00F03B4FA84F4E340074C1034B7
:100CC000D203E35C03D5B0FBF3F0484310BD044806
:100CD000484310BD0010024000127A008024000832
:100CE00000093D002DE9F84F040071D02078FB4D3C
:100CF000C0074FF0010625D068687704C0F3810073
:100D0000012807D06868C0F3810002281BD16868F9
:100D1000C00318D597FAA7F0B0FA80F040F0200091
:100D2000400901D0286800E0686A97FAA7F1B1FA93
:100D300081F101F01F0106FA01F1084265D06068F7
:100D40000028D2D061E06068B0F5803F0BD010B1D0
:100D5000B0F5A02F17D0286820F4803028602868CC
:100D600020F4802002E0286840F480302860E86A9F
:100D7000A16820F00F000843E862606820B3FFF725
:100D8000EFFC80460AE0286840F480202860EAE70B
:100D9000FFF7E6FCA0EB0800642872D897FAA7F0EA
:100DA000B0FA80F040F02000400901D0286800E04F
:100DB000686A97FAA7F1B1FA81F101F01F0106FA0A
:100DC00001F10842E4D020E0FFF7CAFC804607E0CA
:100DD000C7E000BFFFF7C4FCA0EB08006428DCD824
:100DE00097FAA7F0B0FA80F040F02000400901D057
:100DF000286800E0686A97FAA7F1B1FA81F101F07A
:100E00001F0106FA01F10842E4D12078DFF8D08210
:100E100080074FF0000A4FF0020759D568684FF07D
:100E2000F80B10F00C0F07D06868C0F3810002289F
:100E30001BD16868C00318D497FAA7F0B0FA80F005
:100E400040F02000400901D0286800E0686A97FA65
:100E5000A7F1B1FA81F101F01F0106FA01F1084290
:100E60002BD0206901287CD127E0206988B396FA2D
:100E7000A6F0B0FA80F048F82060FFF771FC8146D8
:100E800006E055E1FFF76CFCA0EB0900022884D8CE
:100E900097FAA7F0B0FA80F040F02000400901D0A6
:100EA000286800E0686A97FAA7F1B1FA81F101F0C9
:100EB0001F0106FA01F10842E4D028689BFAABF260
:100EC0006169B2FA82F220F0F8009140084328608C
:100ED00025E0FFE796FAA6F1B1FA81F148F821A0E2
:100EE000FFF73EFC814605E0FFF73AFCA0EB090066
:100EF0000228CCD897FAA7F0B0FA80F040F0200092
:100F0000400901D0286800E0686A97FAA7F1B1FAB1
:100F100081F101F01F0106FA01F10842E4D12078C5
:100F200000076AD5A069A0B396FAA6F0B0FA80F0DF
:100F300008EB8000C0F88064FFF712FC814605E0F2
:100F4000FFF70EFCA0EB09000228A0D897FAA7F043
:100F5000B0FA80F040F06000B6EB501F02D1286874
:100F60000CE077E197FAA7F0B0FA80F040F060006B
:100F7000B7EB501F01D1286A00E0686A97FAA7F121
:100F8000B1FA81F101F01F0106FA01F21042D7D047
:100F900033E0FFE796FAA6F0B0FA80F008EB8000A5
:100FA000C0F880A4FFF7DCFB814605E0FFF7D8FB23
:100FB000A0EB090002289CD897FAA7F0B0FA80F0BD
:100FC00040F06000B6EB501F01D128680BE097FAA3
:100FD000A7F0B0FA80F040F06000B7EB501F01D1ED
:100FE000286A00E0686A97FAA7F1B1FA81F101F086
:100FF0001F0106FA01F21042D8D12078400774D5BB
:10100000E8694FF00009C00009D4E86940F0805059
:10101000E861E8694FF0010900F080500090314824
:101020000168C90512D4016841F480710160FFF7BD
:1010300097FB834606E000BFFFF792FBA0EB0B0097
:10104000642875D827480068C005F5D5E0680128F0
:101050000AD008B1052811D0286A20F001002862C2
:10106000286A20F0040002E0286A40F001002862AB
:10107000E068C8B3FFF774FB83460DE0286A40F0D0
:1010800004002862F0E700BFFFF76AFBA0EB0B014A
:1010900041F2883081424BD897FAA7F0B0FA80F03D
:1010A00040F04000B6EB501F01D128680BE097FAE2
:1010B000A7F0B0FA80F040F04000B7EB501F01D12C
:1010C000286A00E0686A97FAA7F1B1FA81F101F0A5
:1010D0001F0106FA01F21042D6D035E0001002409E
:1010E000000042420070004000E034E0FFF738FBAF
:1010F000834607E0FFF734FBA0EB0B0141F2883099
:10110000814215D897FAA7F0B0FA80F040F040007D
:10111000B6EB501F01D128680CE097FAA7F0B0FA9F
:1011200080F040F04000B7EB501F02D1286A01E088
:1011300083E0686A97FAA7F1B1FA81F101F01F0123
:1011400006FA01F21042D5D1B9F1000F03D0E869D7
:1011500020F08050E861E06980B36968C1F38101E3
:10116000022977D04FF080714F00022809D091FA00
:10117000A1F0B0FA80F048F820A0FFF7F1FA044699
:101180005EE050468A4691FAA1F1B1FA81F1C1467A
:1011900048F82100FFF7E4FA804605E0FFF7E0FA9F
:1011A000A0EB0800022848D897FAA7F0B0FA80F020
:1011B00040F02000400902D0286801E056E0686A4B
:1011C00097FAA7F1B1FA81F101F01F0106FA01F1D6
:1011D0000842E3D1D4E908100843696821F4741186
:1011E000084368609AFAAAF0B0FA80F049F82060E3
:1011F000FFF7B6FA044604E0FFF7B2FA001B022834
:101200001BD897FAA7F0B0FA80F040F02000400910
:1012100001D0286800E0686A97FAA7F1B1FA81F175
:1012200001F01F0106FA01F10842E5D01EE000BFFF
:10123000FFF796FA001B022802D90320BDE8F88FB9
:1012400097FAA7F0B0FA80F040F02000400902D0F1
:10125000286801E00CE0686A97FAA7F1B1FA81F119
:1012600001F01F0106FA01F10842E1D10020E5E793
:101270000120E3E74FF0E0210428086903D020F0C3
:1012800004000861704740F00400FAE7704710B5A9
:10129000401EB0F1807F01D3012010BD4FF0E0244B
:1012A00060610F21601700F0F9FB0020A0610720AA
:1012B0002061002010BD10B5FFF7E8FF10BD70479A
:1012C0007047704730B590F83C20012A1CD00122AD
:1012D00080F83C2003685A689C680C4DAB4203D1EF
:1012E00022F470054A682A4322F070050A6889686A
:1012F0002A4324F0800421435A600268916000214F
:1013000080F83C10084630BD022030BD002C014062
:1013100010B5040003D094F83D0010B107E001209F
:1013200010BD002084F83C00204600F00DF802209B
:1013300084F83D00211D206800F03CFC012084F869
:101340003D00002010BD000008B50068B0F1804FDE
:1013500012D10A48C16941F00101C161C06900228E
:1013600000F00100009011461C20FFF785FABDE84F
:1013700008401C20FFF774BA08BD000000100240AE
:101380000168CA6842F00102CA600068016841F061
:10139000010101600020704770B5044690F83C00E0
:1013A000012817D0012584F83C50022084F83D0024
:1013B00022689068364E304020F47F409060086884
:1013C000502839D00DDC20285BD005DC98B31028DC
:1013D00043D153E0022070BD302855D040283CD185
:1013E00041E0602830D070280CD0B0F5805F03D089
:1013F000B0F5005F31D112E020688168244A703274
:10140000114016E0CB68D1E90121206800F00EFC04
:1014100021688868304040F0770088601DE0CB6824
:10142000D1E90121206800F001FC2068816841F4C5
:101430008041816011E01EE0CA684968206800F0C0
:1014400007FC5021206806E0CA684968206800F05F
:1014500010FC6021206800F0F3FB84F83D50002070
:1014600084F83C0070BDCA684968206800F0F0FB51
:1014700040212068EFE700212068ECE71021206878
:10148000E9E720212068E6E730212068E3E7000053
:1014900088FFFEFF704770B50446006801694FF091
:1014A0000005C943890715D4C168C943890711D408
:1014B000E91E0161012020772068806980072046AD
:1014C00002D0FFF7E7FF04E000F0A7F8204600F0A5
:1014D000A5F8257720680169C943490717D4C16871
:1014E000C943490713D46FF004010161022020773A
:1014F0002068806910F4407F204602D0FFF7CAFFC1
:1015000004E000F08AF8204600F088F8257720688B
:101510000169C943090716D4C168C943090712D430
:101520006FF008010161042020772068C0698007FE
:10153000204602D0FFF7AEFF04E000F06EF8204630
:1015400000F06CF8257720680169C943C90617D4F3
:10155000C168C943C90613D46FF0100101610820A6
:1015600020772068C06910F4407F204602D0FFF742
:1015700091FF04E000F051F8204600F04FF8257785
:1015800020680169C943C90708D1C168C943C907AF
:1015900004D1891E0161204600F042F820680169EB
:1015A000C943090609D4C168C943090605D46FF0C7
:1015B000800101612046FFF783FE20680169C9436D
:1015C000C90509D4C168C943090605D46FF48071FF
:1015D00001612046FFF773FE20680169C94349068F
:1015E00009D4C168C943490605D46FF040010161BF
:1015F000204600F023F820680169C94389060BD40E
:10160000C168C943890607D46FF0200101612046F3
:10161000BDE87040FFF755BE70BD704770470000D1
:10162000054942F210728868904201DA401C00E0DD
:10163000002088607047000000000020704770475D
:101640007047000070B503680446D869196810F047
:101650000F0508D1820606D58A0604D52046BDE8C6
:10166000704000F0CFBB9A68002D66D002F00105F3
:1016700001F490762E4360D0C60707D0CE0505D57D
:1016800001261E62E36E43F00103E366830708D57B
:10169000D30706D0266802233362E36E43F00403C7
:1016A000E366430708D5D20706D0236804221A62EE
:1016B000E26E42F00202E26602070AD501F0200261
:1016C0002A4306D0236808221A62E26E42F008021A
:1016D000E266E26E002A29D0800604D5880602D58B
:1016E000204600F08FFBE06E000703D4206880687E
:1016F00040061CD5204600F06AFB20688168490638
:1017000011D5816821F040018160606E58B11C499B
:101710004163606EFEF786FE002807D0606E416B65
:10172000BDE8704008472046FFF78AFF70BD20469D
:10173000FFF786FF0020E06670BDC5020ED552029D
:101740000CD54FF480101862202084F8690084F8CA
:101750006A002046BDE87040FFF771BF020606D55B
:101760000A0604D52046BDE8704000F02DBC4006B6
:10177000E2D54806E0D52046BDE8704000F035BB14
:10178000BB1D000810B5040003D094F8690010B127
:1017900007E0012010BD002084F86800204600F01A
:1017A00027F8242084F869002068016821F00101ED
:1017B0000160204600F062FB0128EBD0606A10B1A6
:1017C000204600F068FA2068416821F490414160A9
:1017D0002068816821F02A0181602068016841F059
:1017E000010101602046BDE8104000F0B8BA0000D9
:1017F00000B50068124987B088421ED1114881693E
:1018000041F4804181618069694600F4804005901F
:1018100030200090022001900020029003200390CD
:10182000072004900848FEF7D5FE00221146252027
:10183000FFF722F82520FFF713F807B000BD0000DE
:1018400000380140001002400008004890F86A305B
:10185000202B3FD1B9B1B2B190F86830012B39D00B
:10186000012380F868304165A0F85820A0F85A207C
:101870008168FF22B1F5805F07D07F2351B1B1F1BC
:10188000805F0CD010E001207047016921B940F25F
:10189000FF1107E00169D1B9A0F85C2004E00169FB
:1018A000A9B13F21A0F85C100021C166222280F876
:1018B0006A2080F8681001688A6842F001028A6034
:1018C0000068016841F49071016000207047A0F841
:1018D0005C30E9E70220704710B500680F49884284
:1018E0001BD10F480F4C00786076002021184978F2
:1018F0002154401CC0B21928F8D30A4801220849D3
:101900007A38FFF7A3FF20785A2806D16078A528F7
:1019100003D103490120891E087010BD0038014021
:1019200002000020E20000202DE9F843044690F870
:1019300069001F4616460D4620284DD1CDB1C6B1CF
:1019400094F86800012847D0012084F868004FF01F
:101950000008C4F86C80212084F869005034FEF738
:10196000FFFE24F8026B814624F852694FF480563A
:1019700018E00120BDE8F883B4F85200401EA4F836
:1019800052004B46002280212046009700F04EFB7B
:10199000A0B9A068B04201D1206988B115F8010B47
:1019A00021680885B4F852000028E5D14B46002292
:1019B00040212046009700F039FB30B10320D9E7E1
:1019C00035F8020BC0F30800EAE7202084F869002C
:1019D00084F868800020CDE70220CBE77047FEE75F
:1019E00007480168074A1140B1F1005F07D141681B
:1019F000054A51611161006880F308880847704703
:101A0000004000080000FE2F0000002010B5134821
:101A100088B04FF08041016040F21F310024C0E9DE
:101A2000011442F20F71C0E903148461FFF770FCE6
:101A300000B1FEE74FF48050039003A90748FFF779
:101A4000ABFC00B1FEE70094694604480294FFF73E
:101A500039FC002800D0FEE708B010BD28000020A7
:101A60000C4810B50A4901604FF41651416000213D
:101A700081600C22C160C0E904128161C161016210
:101A80004162FFF77FFE002800D0FEE710BD000096
:101A90000038014068000020FEE770470907090E82
:101AA000002806DA00F00F0000F1E02080F8141D95
:101AB000704700F1E02080F80014704770477047CD
:101AC00010B5FEF753FEBDE81040FFF7F4BB70B54C
:101AD0009CB00225012610200095CDE90460002469
:101AE000C003CDE9084007956846FFF7FBF800B151
:101AF000FEE70F20CDE917058020CDE9190400216C
:101B000017A81B94FEF7E4FF00B1FEE70AA80A96A7
:101B10000C94FEF7E3FE00B1FEE7FFF77BF84FF40D
:101B20007A71B0FBF1F0FFF7B2FB0420FFF7A2FBE4
:101B300000221146501EFEF79FFE1CB070BD000033
:101B40001448016841F4700101601348016841F0D4
:101B5000010101604168114A114041600168104A69
:101B600011400160016821F480210160416821F485
:101B7000FE014160C16A21F00F01C162016B094A97
:101B800011400163002181600249C003803908606F
:101B90007047000088ED00E0001002400CC07FF8A4
:101BA000FFFFF6FECCFC00FF0148FFF774BC00000D
:101BB00028000020F0B50268184B4FF0804798428B
:101BC00001D0B84203D122F070044A682243144C79
:101BD000144D154E984207D0B84205D0A04203D00C
:101BE000A84201D0B04203D122F44077CA683A43F8
:101BF0004F6922F080023A4302608A68C2620A6832
:101C00008262984205D0A04203D0A84201D0B042DF
:101C100001D10969016301214161F0BD002C01403E
:101C200000400140004401400048014010B5846874
:101C300042EA032224F47F440A432243826010BD17
:101C4000826822F070020A4342F007018160704707
:101C500010B5036A046A24F001040462846924F064
:101C6000F00444EA021423F00A020A438461026287
:101C700010BD10B5036A23F0100303628369046A80
:101C800023F4704343EA023224F0A00343EA011133
:101C90008261016210BD90F82410C90706D0016866
:101CA0004A68836A22F400321A434A6090F824108A
:101CB000890706D501684A68C36A22F480321A434C
:101CC0004A6090F82410490706D501684A68036BFA
:101CD00022F480221A434A6090F82410090706D59E
:101CE00001684A68436B22F400421A434A6090F844
:101CF0002410C90606D501688A68836B22F48052D5
:101D00001A438A6090F82410890606D501688A680B
:101D1000C36B22F400521A438A6090F824104906DB
:101D200011D501684A68036C22F480121A434A6094
:101D3000016CB1F5801F06D101684A68436C22F43A
:101D4000C0021A434A6090F82410090606D50168BB
:101D50004A68806C22F4002202434A607047F8B55A
:101D600000260446C666FEF7FBFC054620680068B0
:101D70006FF07E47000708D52B4600224FF4001174
:101D80002046009700F052F960B9206800684007CB
:101D90000AD52B4600224FF480012046009700F020
:101DA00045F908B10320F8BD202084F8690084F8C3
:101DB0006A0084F868600020F8BD10B5406A002110
:101DC000A0F85A10A0F85210FFF73AFC10BD0168B5
:101DD0000A6822F490720A6001688A6822F001029F
:101DE0008A60202180F86A10704710B501680A687F
:101DF00022F040020A60202180F86910FFF7EEFD12
:101E0000002010BD10B5B0F85C2090F86A30016871
:101E1000222B05D0886940F008008861022010BD9F
:101E2000898C8368B3F5805F01D103696BB1114080
:101E3000426D531C43651170B0F85A10491E0904D5
:101E4000090CA0F85A1007D015E0436D1140198015
:101E5000416D891C4165EFE701680A6822F49072C0
:101E60000A6001688A6822F001028A60202180F8F5
:101E70006A10FFF731FD002010BD00002DE9F04190
:101E8000044610202369A268E6691A4363690021A9
:101E900033431A4323680D461E68444F3E401643A1
:101EA0001E6022685368E66823F44053334353604E
:101EB000236AA2691A4323689E6826F43066164393
:101EC0009E603B4B22689A4210D13A4B1B6B13F039
:101ED000030311D0012B05D0022B05D0032B0CD10D
:101EE00002200AE0042008E0082006E0324B9A4273
:101EF00002D0324B9A4200D10020E6694FF40043F1
:101F00009E4226D109281DD2DFE800F00508121CE8
:101F1000151C1C1C1800FEF783FE01E0FEF798FE5E
:101F20004100606801EB5001B1FBF0F081B20AE0C2
:101F300023496068F6E7FEF7A3FEF1E74FF480312E
:101F40006068EFE7012521F00F00C1F3420108436B
:101F50001CE0092825D2DFE800F005080B24102436
:101F600024241C00FEF75CFE09E0FEF771FE06E08B
:101F70001449606801EB50010EE0FEF781FE014656
:101F8000606801EB5001B1FBF0F080B22168C860DD
:101F900008E0606803EB5001B1FBF0F080B2D06064
:101FA00000E001252846BDE8F0810000F369FFEF5D
:101FB000003801400010024000440040004800404A
:101FC0000024F40000127A0090F86910212901D051
:101FD00002207047B0F8521021B18168B1F5805FDE
:101FE0000BD00CE001680A6822F080020A600068E9
:101FF000016841F0400101600CE0016961B1C16C10
:102000004A1CC26402680978A2F8281030F8521FEE
:10201000491E018000207047C16C02680988C1F325
:1020200008011185C16C891CC164EFE72DE9F041FD
:10203000984617460E460446069D1DE0681C1BD0B8
:102040002DB1FEF78DFBA0EB0800A84214D9206843
:10205000016821F4D07101602068816821F00101DC
:102060008160202084F8690084F86A00002084F8E8
:1020700068000320BDE8F0812068C06936EA0000EE
:1020800004D00020B842D9D00020F3E70120F9E7BE
:102090000148FFF7D7BA000068000020FEE702E021
:1020A00008C8121F08C1002AFAD1704770470020E3
:1020B00001E001C1121F002AFBD1704786B0FEF774
:1020C0005DFBFFF704FD2648416941F400214161B1
:1020D000416901F400210591416941F48021416188
:1020E0004069204E00F480204FF4005505900022F6
:1020F00029463046FEF72EFB0120CDE90050002096
:102100000290039069463046FEF764FAFFF7A8FC98
:10211000FFF77CFC1448FFF733F9134801221349F9
:102120004030FFF793FBFEF75BF9104CA41EE080F4
:10213000FEF76AF84AF6AA2700F01AF8A068022803
:10214000FADB012229463046FEF704FBE088B8425C
:10215000F2D160780028EFD1FFF742FCECE70000F5
:102160000010024000040048280000200200002067
:102170002DE9F05FC048017800297DD00026054692
:102180000670BE4801785A2976D14178A52973D1C5
:102190008146BA4C80785A270A3C88464FF0AA0AF2
:1021A0004FF0550B33282DD199F8030044287DD1E9
:1021B00004220021B148FEF7C7F899F804108842BC
:1021C00018D1AE8001216970277084F80180A67053
:1021D00084F803A084F804B0052200212046FEF70D
:1021E000B3F86071002049460E54401CC0B2042868
:1021F000FAD334E099F800105A293DD199F801003A
:10220000A52839D199F80200FE283CD199F803009D
:10221000EF287BD1042200219848FEF795F899F821
:102220000410884225D12846AE8001254570FEF76E
:1022300099F8277084F80180A570904884F803A06D
:1022400084F804B0052200210A38FEF77DF8607199
:10225000002049460E54401CC0B20428FAD3BDE801
:10226000F05F8649642306220A39A1F17000FFF766
:102270005BBB99F8001000E07FE05A297DD199F806
:102280000100A52879D199F80210FA293ED199F8D0
:102290000300AF283AD1042200217848FEF754F811
:1022A00099F80410884229D1AE8000E02EE0277012
:1022B000052084F80180A0700246704884F803A0CD
:1022C00084F804B000210A38FEF73EF8607100205F
:1022D00049460E54401CC0B20428FAD3674964230F
:1022E0000A390622A1F17000FFF71EFB4AF6AA2068
:1022F000FEF77CF8BDE8F05FFFF772BB99F80010BD
:102300005A293AD199F80100A52836D199F8031035
:1023100099F80220484601EB0222A988A9468A4280
:102320002BD10279054604215448121DFEF70CF802
:1023300008B14042C0B251492B790831595C814201
:102340001BD1B9F804004FF0020A10B9E87904284B
:1023500019D0E87988B3052865D001280DD12770F8
:1023600084F801800320A070A878E070E8782071DC
:102370004248052200210A3800E07BE0FDF7E4FF37
:10238000607100206CE0297A6A7A090601EB02424A
:10239000C9F80C20277084F8018084F802A0A9787D
:1023A000E170E87820713548052200210A38FDF7F0
:1023B000CBFF60710020294603E007E00E54401C6B
:1023C000C0B24A7908328242F8D84DE06A79D9F829
:1023D0000C00A97900EB0220084408222749FDF7E8
:1023E000D5FF277084F8018070B10420A070E670DA
:1023F00084F804A02148052200210A38FDF7A4FF33
:1024000060710020294609E084F802A0A978E170F3
:10241000E8782071EEE70E54401CC0B24A790832C9
:102420008242F8D820E0277084F8018084F802A066
:10243000A878E070E87820711048052200210A3859
:10244000FDF782FF6071002002E02E54401CC0B2F4
:10245000697908318142F8D806E02E54401CC0B298
:10246000697908318142F8D8B9F80410491CA9F8F3
:102470000410F4E6BDE8F09F00000020E200002018
:1024800002030405060708090A0B0C0D0E0F1010B5
:102490000102030405060708090A0B0C0D0E0F10B4
:1024A0000000000000000000010203040607080904
:1024B0000000000001020304D824000800000020EE
:1024C000280000009E2000080025000828000020A9
:1024D000F8040000AE20000800000000000000002A
:1024E00000000000000000000000000000000000EC
:1024F00001000000100000000000000000127A003F
:040000050800018965
:00000001FF
